:027EAB0085D37D
:027EB500745601
:027EBD00848EB1
:027EBF007C0E37
:027EC300832713
:027EC500861421
:027EC700858BA9
:027EC900862011
:0D85D3001276357F0A123641E4FF0236CAE7
:10745600E4FF127FC0AC06AD07E4120B107BC37AC3
:107466009B793978BA1208F87BFD7A0C794D784108
:107476001208079003927401F01255637F01127887
:0D748600BFE4FBFA7D1E7F0212375380C366
:10848E00E4FF127125E4FBFA7D1E7F021237538042
:01849E00EFEE
:107C0E00E4FF1237B2E4FF1281FC9003927401F08C
:107C1E001255637F011278BFE4FBFA7D647F021276
:047C2E00375380DC6C
:0C861400E4FBFA7DC87F8012375380F42D
:0C862000E4FBFA7D647F8012375380F485
:10832700125428EF6003128644E4FBFA7D147F8021
:0583370012375380EB3A
:0F858B001276E2E4FBFA7D147F8012375380F101
:107E2B00535443313577346B3538733427732055BE
:107E3B0041525431206973206F70656E200D0A001A
:1077BE009003367440F0A37401F0A31211C7900326
:1077CE003D7401F0E4A3F0A304F0A3F0E4A3F0A34E
:1077DE00F07B017A0379367F0112130D7BFF7A7EDF
:0577EE00792B0282FA74
:01877E0022D8
:107635007F807E257D007C001277BE126921128134
:10764500E212724612846A9003371211D3BA399B3B
:10765500C390033B1211D3414D0CFDE4FF126F9C07
:0A766500E4FF128458E4FF0284469B
:01877F0022D7
:0187800022D6
:0187810022D5
:0187820022D4
:0187830022D3
:105B7A0044000800000000420330000044033200E1
:035B8A0000000018
:104129009005FCEBF0A3EAF0A3E9F0A3ECF0A3ED12
:01413900F095
:10413A0090060B1211D300000000900605E0FCA3C4
:10414A00E0FDA3E0FEA3E0FF90060F1211C7900660
:10415A0001E0FCA3E0FDA3E0FEA3E0FF900613123A
:10416A0011C7E4900609F0A3F09005FFE0FEA3E072
:10417A00FF900609E0FCA3E0FDC39FEC9E4003020A
:10418A0042A6EDAE047802C333CE33CED8F9FF90FF
:10419A0005FCE0FBA3E0FAA3E0F98F828E831211FB
:1041AA006790060FE0F8A3E0F9A3E0FAA3E0FB1298
:1041BA000A9E5029900609E0FEA3E07802C333CE96
:1041CA0033CED8F9FF9005FCE0FBA3E0FAA3E0F9AF
:1041DA008F828E8312116790060F1211C7900609FB
:1041EA00E0FEA3E07802C333CE33CED8F9FF9005C0
:1041FA00FCE0FBA3E0FAA3E0F98F828E8312116739
:10420A00900613E0F8A3E0F9A3E0FAA3E0FB120A90
:10421A009E602B4029900609E0FEA3E07802C33392
:10422A00CE33CED8F9FF9005FCE0FBA3E0FAA3E079
:10423A00F98F828E831211679006131211C79006A6
:10424A000BE0FCA3E0FDA3E0FEA3E0FFC004C00571
:10425A00C006C007900609E0FEA3E07802C333CE89
:10426A0033CED8F9FF9005FCE0FBA3E0FAA3E0F90E
:10427A008F828E83121197D007D006D005D00412F0
:10428A00080790060B1211C790060AE004F06003B3
:10429A00024173900609E004F002417390060BE0B4
:1042AA00FCA3E0FDA3E0FEA3E0FFC004C005C00636
:1042BA00C007900613E0FCA3E0FDA3E0FEA3E0FF25
:1042CA0090060FE0F8A3E0F9A3E0FAA3E0FB1208D6
:1042DA0007A804A905AA06AB07D007D006D005D0BF
:1042EA000412080390060B1211C790060BE0FCA3F8
:1042FA00E0FDA3E0FEA3E0FFC004C005C006C007BE
:10430A00900600E024FEFD9005FFE034FFFCE41275
:10431A000B10A804A905AA06AB07D007D006D0053A
:10432A00D004120A0190060B1211C790060BE0FC8A
:0C433A00A3E0FDA3E0FEA3E0FF12860755
:014346002254
:064F1500900B491211C7C8
:104F1B00900B51E0FCA3E0FDA3E0FEA3E0FF900BA0
:104F2B00591211C7900B4DE0FCA3E0FDA3E0FEA3CB
:104F3B00E0FF900B5D1211C7900000E0FCA3E0FDB9
:104F4B00A3E0FEA3E0FF900B611211C7900000E0FD
:104F5B00FCA3E0FDA3E0FEA3E0FF900B611211C7E1
:104F6B00900B5DE0FCA3E0FDA3E0FEA3E0FF90004F
:104F7B0004E0F8A3E0F9A3E0FAA3E0FB1208079022
:104F8B000B691211C7900B59E0FCA3E0FDA3E0FEE7
:104F9B00A3E0FF900B69E0F8A3E0F9A3E0FAA3E02C
:104FAB00FB120807A804A905AA06AB07900B69E03A
:104FBB00FCA3E0FDA3E0FEA3E0FF120A01900B6D42
:104FCB001211C7900B61E0F8A3E0F9A3E0FAA3E09C
:104FDB00FB900B49E0FCA3E0FDA3E0FEA3E0FF1276
:104FEB000803900B6DE0F8A3E0F9A3E0FAA3E0FB54
:104FFB001208F8900B61E0F8A3E0F9A3E0FAA3E044
:10500B00FB120807900B651211C7900B6DE0F8A30C
:10501B00E0F9A3E0FAA3E0FBE4FFFE7D807C3F1206
:10502B000803900B69E0F8A3E0F9A3E0FAA3E0FB17
:10503B001208F89000041211C7900B65E0FCA3E076
:10504B00FDA3E0FEA3E0FF9000001211C7900B65DB
:0B505B00E0FCA3E0FDA3E0FEA3E0FFEB
:015066002227
:066B0E009005FC1211C706
:106B1400900008E0F8A3E0F9A3E0FAA3E0FB9005F5
:106B2400FCE0FCA3E0FDA3E0FEA3E0FF12080312D7
:106B34008607900600E0F8A3E0F9A3E0FAA3E0FBDF
:106B4400120A9E500F900008E0FCA3E0FDA3E0FEB3
:106B5400A3E0FF229005FCE0FCA3E0FDA3E0FEA37C
:106B6400E0FF9000081211C79005FCE0FCA3E0FDD3
:096B7400A3E0FEA3E0FF12860776
:016B7D0022F5
:0657AD009005FC1211C77B
:1057B3009006021211D3000000009005FCE0FCA348
:1057C300E0FDA3E0FEA3E0FF90032C1211C7E490D9
:1057D3000600F0A3F0900600E0FEA3E0FFC394C828
:1057E300EE94004003025894EF7802C333CE33CED5
:1057F300D8F92410F58274003EF583E0FCA3E0FDA4
:10580300A3E0FEA3E0FFC004C005C006C0079006E6
:1058130000E0FEA3E07802C333CE33CED8F9240CE4
:10582300F58274003EF583D007D006D005D004126C
:1058330011C7900602E0FCA3E0FDA3E0FEA3E0FF96
:10584300C004C005C006C007900600E0FEA3E078D0
:1058530002C333CE33CED8F9240CF58274003EF55F
:1058630083E0F8A3E0F9A3E0FAA3E0FBD007D006B6
:10587300D005D0041208079006021211C790060142
:10588300E004F060030257D8900600E004F00257EA
:10589300D8E4FBFA79487843900602E0FCA3E0FDE4
:0C58A300A3E0FEA3E0FF120A011286073A
:0158AF0022D6
:1065F0009006021211C7900332E0F8A3E0F9A3E07D
:10660000FAA3E0FB900602E0FCA3E0FDA3E0FEA3FA
:10661000E0FF1208031286077B177AB779D1783822
:10662000120A9E60054003D38001C3403D900331B0
:10663000E004F07006900330E004F0900600E0FE05
:10664000A3E0FFD3900331E09F900330E09E402110
:10665000E4F0A3F0900602E0FCA3E0FDA3E0FEA3BB
:10666000E0FF9003321211C78007E4900330F0A3DB
:0F667000F0900332E0FCA3E0FDA3E0FEA3E0FF07
:01667F0022F8
:10506700AB07EB75F041A4246EF582E43409F583B0
:105077001211D300000000EB75F041A42472F582F1
:10508700E43409F5831211D300000000EB75F041F9
:10509700A42476F582E43409F5831211D3000000C5
:1050A70000EB75F041A4248AF582E43409F58312F4
:1050B70011D300000000EB75F041A42486F582E4CB
:1050C7003409F5831211D300000000900CFDE0FCB9
:1050D700A3E0FDA3E0FEA3E0FFEB75F041A4247A73
:1050E700F582E43409F5831211C7900D01E0FCA3A2
:1050F700E0FDA3E0FEA3E0FFEB75F041A4247EF5FD
:1051070082E43409F5831211C7900D05E0FCA3E092
:10511700FDA3E0FEA3E0FFEB75F041A42482F58236
:10512700E43409F5831211C7EB75F041A4247AF52D
:1051370082E43409F583E0FCA3E0FDA3E0FEA3E0ED
:10514700FFEB75F041A42492F582E43409F583124C
:1051570011C7EB75F041A4247EF582E43409F58389
:10516700E0FCA3E0FDA3E0FEA3E0FFEB75F041A4A4
:10517700248EF582E43409F5831211C7EB75F041EB
:10518700A42482F582E43409F583E0FCA3E0FDA3BF
:10519700E0FEA3E0FFEB75F041A42496F582E4342A
:0651A70009F5830211C7A7
:1083EC00EF75F041A424A6F582E43409F5837401F9
:0283FC00F0226D
:10849F00EF75F041A424A6F582E43409F583E4F0E6
:0184AF0022AA
:10434700900E1AEFF075F041A424A6F582E4340923
:10435700F583E07003024521900E1AE0FF75F041E6
:10436700A4246AF582E43409F583E0F8A3E0F9A30D
:10437700E0FAA3E0FBEF75F041A42466F582E4348C
:1043870009F583E0FCA3E0FDA3E0FEA3E0FF12082C
:1043970003900E1AE0FB75F041A4246EF582E43415
:1043A70009F5831211C7EB75F041A42486F582E461
:1043B7003409F583C083C082E0FCA3E0FDA3E0FEDF
:1043C700A3E0FF900E1AE075F041A4246EF582E495
:1043D7003409F583E0F8A3E0F9A3E0FAA3E0FB12C0
:1043E7000807D082D0831211C7900E1AE0FF75F02C
:1043F70041A42486F582E43409F583E0F8A3E0F9C3
:10440700A3E0FAA3E0FBEF75F041A4247EF582E474
:104417003409F583E0FCA3E0FDA3E0FEA3E0FF126F
:1044270008F8C004C005C006C007900E1AE0FF7563
:10443700F041A4246EF582E43409F583E0F8A3E0A3
:10444700F9A3E0FAA3E0FBEF75F041A4247AF58223
:10445700E43409F583E0FCA3E0FDA3E0FEA3E0FF5D
:104467001208F8D003D002D001D000120807C00408
:10447700C005C006C007900E1AE0FF75F041A424DE
:1044870072F582E43409F583E0F8A3E0F9A3E0FAD2
:10449700A3E0FBEF75F041A4246EF582E43409F53F
:1044A70083E0FCA3E0FDA3E0FEA3E0FF1208039076
:1044B7000E1AE075F041A42482F582E43409F583ED
:1044C700E0F8A3E0F9A3E0FAA3E0FB1208F8D003B1
:1044D700D002D001D000120807900E1AE0FB75F049
:1044E70041A4248AF582E43409F5831211C7EB75D8
:1044F700F041A4246EF582E43409F583E0FCA3E0DF
:10450700FDA3E0FEA3E0FFEB75F041A42472F58262
:0C451700E43409F5831211C7D322C3223B
:053EE300900DF1EFF06D
:103EE800E0FF75F041A4246AF582E43409F583E023
:103EF800F8A3E0F9A3E0FAA3E0FBEF75F041A424EE
:103F080066F582E43409F583E0FCA3E0FDA3E0FE56
:103F1800A3E0FF120803900DF1E0FB75F041A42423
:103F28006EF582E43409F5831211C7EB75F041A4EC
:103F380024A6F582E43409F583E07003024127EBF7
:103F480075F041A424A2F582E43409F583E0FCA3CA
:103F5800E0FDA3E0FEA3E0FFEB75F041A4246EF5BD
:103F680082E43409F583E0F8A3E0F9A3E0FAA3E0DA
:103F7800FB120A9E600B4009E4900DF2F0A3F0805A
:103F88004E900DF2E4F0A304F0900DF1E075F041CD
:103F9800A42486F582E43409F583C083C082E0FC5A
:103FA800A3E0FDA3E0FEA3E0FF900DF1E075F04172
:103FB800A4246EF582E43409F583E0F8A3E0F9A3BC
:103FC800E0FAA3E0FB120807D082D0831211C79051
:103FD8000DF1E0FF75F041A42486F582E43409F57B
:103FE80083E0F8A3E0F9A3E0FAA3E0FBEF75F04162
:103FF800A4247EF582E43409F583E0FCA3E0FDA364
:10400800E0FEA3E0FF1208F8C004C005C006C00720
:10401800900DF2E0FCA3E0FDE4120B10D003D002F7
:10402800D001D0001208F8C004C005C006C007902F
:104038000DF1E0FF75F041A4246EF582E43409F532
:1040480083E0F8A3E0F9A3E0FAA3E0FBEF75F04101
:10405800A4247AF582E43409F583E0FCA3E0FDA307
:10406800E0FEA3E0FF1208F8D003D002D001D00090
:10407800120807C004C005C006C007900DF1E0FF94
:1040880075F041A42472F582E43409F583E0F8A3BD
:10409800E0F9A3E0FAA3E0FBEF75F041A4246EF584
:1040A80082E43409F583E0FCA3E0FDA3E0FEA3E08D
:1040B800FF120803900DF1E075F041A42482F58207
:1040C800E43409F583E0F8A3E0F9A3E0FAA3E0FB00
:1040D8001208F8D003D002D001D000120807900DC2
:1040E800F1E0FB75F041A4248AF582E43409F583F4
:1040F8001211C7EB75F041A4246EF582E43409F57A
:1041080083E0FCA3E0FDA3E0FEA3E0FFEB75F04134
:10411800A42472F582E43409F5831211C7D322C3AB
:014128002274
:0526EB00900DF4EFF07A
:1026F000E0FF75F041A4246AF582E43409F583E033
:10270000F8A3E0F9A3E0FAA3E0FBEF75F041A424FD
:1027100066F582E43409F583E0FCA3E0FDA3E0FE66
:10272000A3E0FF120803900DF4E0FB75F041A42430
:102730006EF582E43409F5831211C7EB75F041A4FC
:1027400024A6F582E43409F583E07003022AC1EB84
:1027500075F041A4249AF582E43409F583E0FCA3E2
:10276000E0FDA3E0FEA3E0FFEB75F041A4246AF5D1
:1027700082E43409F583E0F8A3E0F9A3E0FAA3E0EA
:10278000FB120A9E6002500302280F900DF4E075C0
:10279000F041A4246EF582E43409F583E0FCA3E063
:1027A000FDA3E0FEA3E0FF120B49128638AC06AD94
:1027B00007EC120B10900DF4E075F041A424A2F583
:1027C00082E43409F583E0F8A3E0F9A3E0FAA3E09A
:1027D000FB120A9E500302291A900DF5E4F0A3049F
:1027E000F0900DF4E075F041A4246EF582E4340914
:1027F000F583E0FCA3E0FDA3E0FEA3E0FFE4FBFA29
:10280000F9F8120A9E6002500302297102292B90E6
:102810000DF4E0FF75F041A4249AF582E43409F543
:1028200083E0F8A3E0F9A3E0FAA3E0FBEF75F04141
:10283000A4246AF582E43409F583E0FCA3E0FDA357
:10284000E0FEA3E0FF120A9E600250030228CF9030
:102850000DF4E075F041A4246EF582E43409F583AB
:10286000E0FCA3E0FDA3E0FEA3E0FF120B4912860B
:1028700038AC06AD07EC120B10900DF4E075F0418A
:10288000A424A2F582E43409F583E0F8A3E0F9A3D7
:10289000E0FAA3E0FB120A9E5002807E900DF5E460
:1028A000F0A304F0900DF4E075F041A4246EF582DD
:1028B000E43409F583E0FCA3E0FDA3E0FEA3E0FF20
:1028C000E4FBFAF9F8120A9E4003022971805C9039
:1028D0000DF4E075F041A4246EF582E43409F5832B
:1028E000E0FCA3E0FDA3E0FEA3E0FF120B4912868B
:1028F00038AC06AD07EC120B10900DF4E075F0410A
:10290000A424A2F582E43409F583E0F8A3E0F9A356
:10291000E0FAA3E0FB120A9E5009E4900DF5F0A343
:10292000F0804E900DF5E4F0A304F0900DF4E07506
:10293000F041A42486F582E43409F583C083C08283
:10294000E0FCA3E0FDA3E0FEA3E0FF900DF4E07542
:10295000F041A4246EF582E43409F583E0F8A3E0A5
:10296000F9A3E0FAA3E0FB120807D082D08312118A
:10297000C7900DF4E0FF75F041A42486F582E4349D
:1029800009F583E0F8A3E0F9A3E0FAA3E0FBEF7513
:10299000F041A4247EF582E43409F583E0FCA3E051
:1029A000FDA3E0FEA3E0FF1208F8C004C005C006C6
:1029B000C007900DF5E0FCA3E0FDE4120B10D0037E
:1029C000D002D001D0001208F8C004C005C006C073
:1029D00007900DF4E0FF75F041A4246EF582E43415
:1029E00009F583E0F8A3E0F9A3E0FAA3E0FBEF75B3
:1029F000F041A4247AF582E43409F583E0FCA3E0F5
:102A0000FDA3E0FEA3E0FF1208F8D003D002D0013E
:102A1000D000120807C004C005C006C007900DF41E
:102A2000E0FF75F041A42472F582E43409F583E0F7
:102A3000F8A3E0F9A3E0FAA3E0FBEF75F041A424CA
:102A40006EF582E43409F583E0FCA3E0FDA3E0FE2B
:102A5000A3E0FF120803900DF4E075F041A4248276
:102A6000F582E43409F583E0F8A3E0F9A3E0FAA3E2
:102A7000E0FB1208F8D003D002D001D00012080702
:102A8000900DF4E0FB75F041A4248AF582E434094A
:102A9000F5831211C7EB75F041A4246EF582E4347E
:102AA00009F583E0FCA3E0FDA3E0FEA3E0FFEB75E6
:102AB000F041A42472F582E43409F5831211C7D3DE
:022AC00022C32F
:012AC20022F1
:05230A00900DF7EFF05B
:10230F00E0FF75F041A4246AF582E43409F583E017
:10231F00F8A3E0F9A3E0FAA3E0FBEF75F041A424E2
:10232F0066F582E43409F583E0FCA3E0FDA3E0FE4B
:10233F00A3E0FF120803900DF7E0FB75F041A42412
:10234F006EF582E43409F5831211C7EB75F041A4E1
:10235F0024A6F582E43409F583E070030226E9EB45
:10236F0075F041A4249AF582E43409F583E0FCA3C7
:10237F00E0FDA3E0FEA3E0FFEB75F041A4246AF5B6
:10238F0082E43409F583E0F8A3E0F9A3E0FAA3E0CF
:10239F00FB120A9E6002500302242E900DF7E07587
:1023AF00F041A4246EF582E43409F583E0FCA3E048
:1023BF00FDA3E0FEA3E0FF120B49128638AC06AD79
:1023CF0007EC120B10900DF7E075F041A424A2F565
:1023DF0082E43409F583E0F8A3E0F9A3E0FAA3E07F
:1023EF00FB120A9E5003022539900DF8E4F0A30466
:1023FF00F0900DF7E075F041A4246EF582E43409F6
:10240F00F583E0FCA3E0FDA3E0FEA3E0FFE4FBFA0D
:10241F00F9F8120A9E6002500302259002254A9095
:10242F000DF7E0FF75F041A4249AF582E43409F525
:10243F0083E0F8A3E0F9A3E0FAA3E0FBEF75F04126
:10244F00A4246AF582E43409F583E0FCA3E0FDA33C
:10245F00E0FEA3E0FF120A9E600250030224EE90FA
:10246F000DF7E075F041A4246EF582E43409F5838D
:10247F00E0FCA3E0FDA3E0FEA3E0FF120B491286F0
:10248F0038AC06AD07EC120B10900DF7E075F0416C
:10249F00A424A2F582E43409F583E0F8A3E0F9A3BC
:1024AF00E0FAA3E0FB120A9E5002807E900DF8E442
:1024BF00F0A304F0900DF7E075F041A4246EF582BF
:1024CF00E43409F583E0FCA3E0FDA3E0FEA3E0FF05
:1024DF00E4FBFAF9F8120A9E4003022590805C9003
:1024EF000DF7E075F041A4246EF582E43409F5830D
:1024FF00E0FCA3E0FDA3E0FEA3E0FF120B49128670
:10250F0038AC06AD07EC120B10900DF7E075F041EB
:10251F00A424A2F582E43409F583E0F8A3E0F9A33B
:10252F00E0FAA3E0FB120A9E5009E4900DF8F0A325
:10253F00F0804E900DF8E4F0A304F0900DF7E075E5
:10254F00F041A42486F582E43409F583C083C08268
:10255F00E0FCA3E0FDA3E0FEA3E0FF900DF7E07524
:10256F00F041A4246EF582E43409F583E0F8A3E08A
:10257F00F9A3E0FAA3E0FB120807D082D08312116F
:10258F00C7900DF7E0FF75F041A42486F582E4347F
:10259F0009F583E0F8A3E0F9A3E0FAA3E0FBEF75F8
:1025AF00F041A4247EF582E43409F583E0FCA3E036
:1025BF00FDA3E0FEA3E0FF1208F8C004C005C006AB
:1025CF00C007900DF8E0FCA3E0FDE4120B10D00360
:1025DF00D002D001D0001208F8E4FBFAF9784012CB
:1025EF000A01C004C005C006C007900DF7E0FF75D3
:1025FF00F041A4246EF582E43409F583E0F8A3E0FA
:10260F00F9A3E0FAA3E0FBEF75F041A4247AF58279
:10261F00E43409F583E0FCA3E0FDA3E0FEA3E0FFB3
:10262F001208F8D003D002D001D000120807C0045E
:10263F00C005C006C007900DF7E0FF75F041A42458
:10264F0072F582E43409F583E0F8A3E0F9A3E0FA28
:10265F00A3E0FBEF75F041A4246EF582E43409F595
:10266F0083E0FCA3E0FDA3E0FEA3E0FF12080390CC
:10267F000DF7E075F041A42482F582E43409F58367
:10268F00E0F8A3E0F9A3E0FAA3E0FB1208F8D00307
:10269F00D002D001D000120807900DF7E0FB75F0C3
:1026AF0041A4248AF582E43409F5831211C7EB752E
:1026BF00F041A4246EF582E43409F583E0FCA3E035
:1026CF00FDA3E0FEA3E0FFEB75F041A42472F582B9
:0B26DF00E43409F5831211C7D322C3B5
:0126EA0022CD
:1048BB00900E1BEFF075F041A424A6F582E43409A9
:1048CB00F583E07003024A59900E1BE0FF75F0412F
:1048DB00A4246AF582E43409F583E0F8A3E0F9A394
:1048EB00E0FAA3E0FBEF75F041A42466F582E43413
:1048FB0009F583E0FCA3E0FDA3E0FEA3E0FF1208B3
:10490B0003900E1BE0FB75F041A4246EF582E4349A
:10491B0009F5831211C7EB75F041A42472F582E4FB
:10492B003409F583E0FCA3E0FDA3E0FEA3E0FFEB7D
:10493B0075F041A4247EF582E43409F583E0F8A3F5
:10494B00E0F9A3E0FAA3E0FB1208F8C004C005C02D
:10495B0006C007900E1BE0FF75F041A4246EF58294
:10496B00E43409F583E0F8A3E0F9A3E0FAA3E0FB54
:10497B00EF75F041A4247AF582E43409F583E0FC69
:10498B00A3E0FDA3E0FEA3E0FF1208F8D003D002E2
:10499B00D001D000120803C004C005C006C00790A8
:1049AB000E1BE0FF75F041A42476F582E43409F583
:1049BB0083E0F8A3E0F9A3E0FAA3E0FBEF75F04185
:1049CB00A42482F582E43409F583E0FCA3E0FDA383
:1049DB00E0FEA3E0FF1208F8D003D002D001D00014
:1049EB00120807900E1BE0FB75F041A4248AF58298
:1049FB00E43409F5831211C7EB75F041A42472F569
:104A0B0082E43409F583E0FCA3E0FDA3E0FEA3E020
:104A1B00FFEB75F041A42476F582E43409F583129B
:104A2B0011C7EB75F041A4246EF582E43409F583CC
:104A3B00E0FCA3E0FDA3E0FEA3E0FFEB75F041A4D7
:104A4B002472F582E43409F5831211C7D322C322F1
:107CC000AB07900DA0E0FCA3E0FDA3E0FEA3E0FF66
:107CD000EB75F041A4249EF582E43409F58302118A
:017CE000C7DC
:107CE100AB07900DA5E0FCA3E0FDA3E0FEA3E0FF40
:107CF100EB75F041A4249AF582E43409F58302116D
:017D0100C7BA
:107D0200AB07900DAAE0FCA3E0FDA3E0FEA3E0FF19
:107D1200EB75F041A4246AF582E43409F58302117B
:017D2200C799
:107D2300AB07900DAFE0FCA3E0FDA3E0FEA3E0FFF3
:107D3300EB75F041A4247EF582E43409F583021146
:017D4300C778
:107D4400AB07900DB4E0FCA3E0FDA3E0FEA3E0FFCD
:107D5400EB75F041A4247AF582E43409F583021129
:017D6400C757
:107D6500AB07900DB9E0FCA3E0FDA3E0FEA3E0FFA7
:107D7500EB75F041A42482F582E43409F583021100
:017D8500C736
:107D8600AB07900DBEE0FCA3E0FDA3E0FEA3E0FF81
:107D9600EB75F041A42466F582E43409F5830211FB
:017DA600C715
:1080F800EF75F041A42466F582E43409F583E0FCC9
:0A810800A3E0FDA3E0FEA3E0FF22C8
:10811200EF75F041A4246EF582E43409F583E0FCA6
:0A812200A3E0FDA3E0FEA3E0FF22AE
:10812C00EF75F041A42472F582E43409F583E0FC88
:0A813C00A3E0FDA3E0FEA3E0FF2294
:10814600EF75F041A4247AF582E43409F583E0FC66
:0A815600A3E0FDA3E0FEA3E0FF227A
:10816000EF75F041A4247EF582E43409F583E0FC48
:0A817000A3E0FDA3E0FEA3E0FF2260
:10817A00EF75F041A42482F582E43409F583E0FC2A
:0A818A00A3E0FDA3E0FEA3E0FF2246
:10819400EF75F041A4248AF582E43409F583E0FC08
:0A81A400A3E0FDA3E0FEA3E0FF222C
:1081AE00EF75F041A42486F582E43409F583E0FCF2
:0A81BE00A3E0FDA3E0FEA3E0FF2212
:107DA700AB07900DC3E0FCA3E0FDA3E0FEA3E0FF5B
:107DB700EB75F041A424A2F582E43409F58302119E
:017DC700C7F4
:10728C00900E1CEFF075F041A424A6F582E43409AD
:10729C00F583E0602FED24FE601214601714601C5F
:1072AC0024047020900E1CE0FF024347900E1CE05B
:1072BC00FF023EE3900E1CE0FF0226EB900E1CE05A
:0572CC00FF12230A225D
:10829800EF75F041A424A6F582E43409F583E06083
:0982A80007ED1470031248BB221B
:105B8D00602A0B1F00000000000000000000000054
:105B9D0000000000000000000000000000000000F8
:0E5BAD000000000000000000000000000000EA
:1061A00090039AEBF0A3EAF0A3E9F0900003120E3B
:1061B0008BFF900396E0FBA3E0FAA3E0F9A3E0FED7
:1061C000F582758300EF120ECA90039AE0FBA3E0FC
:1061D000FAA3E0F9900002120E8BFFEE2401FDE419
:1061E00033FC900396E0FBA3E0FAA3E0F98D828CE8
:1061F00083EF120ECA90039AE0FBA3E0FAA3E0F942
:10620000900001120E8BFFEE2402FDE433FC90039C
:1062100096E0FBA3E0FAA3E0F98D828C83EF120EE7
:10622000CA90039AE0FBA3E0FAA3E0F9120E72FF12
:10623000EE2403FDE433FC900396E0FBA3E0FAA315
:0A624000E0F98D828C83EF020ECA94
:0578BF0090038EEFF0C4
:1078C400E4A3F090038EE0FF12624A90038FE0FE7F
:1078D400C39F5017741F2EF582E4340BF583E0FF29
:0B78E400127B5090038FE004F080D86E
:0178EF002276
:1055630090038E1211C7900392E0FFD3940A400375
:10557300025696EF7003025696EF14B40A004003E6
:1055830002569690559475F003A4C58325F0C58300
:10559300730255B20255C80255DF0255F602560D85
:1055A30002562302563902564F02566502567B9025
:1055B30003967401F0A3740BF0A3741FF0A374019A
:1055C300F0FB02568F9003967401F0A3740BF0A3C3
:1055D300741FF0A37405F07B0102568F9003967439
:1055E30001F0A3740BF0A3741FF0A37409F07B0103
:1055F30002568F9003967401F0A3740BF0A3741FEB
:10560300F0A3740DF07B0102568F9003967401F0A2
:10561300A3740BF0A3741FF0A37411F07B01806CCF
:105623009003967401F0A3740BF0A3741FF0A3749A
:1056330015F07B0180569003967401F0A3740BF070
:10564300A3741FF0A37419F07B0180409003967438
:1056530001F0A3740BF0A3741FF0A3741DF07B017E
:10566300802A9003967401F0A3740BF0A3741FF0C7
:10567300A37421F07B0180149003967401F0A3744A
:105683000BF0A3741FF0A37425F07B017A03798ECA
:045693001261A022DE
:10624A00EFD3940A5003EF70037F0022900B1F7460
:10625A0024F0EF14B40A0040030262EC90627475F1
:10626A00F003A4C58325F0C5837302629202629B80
:10627A000262A40262AD0262B60262BF0262C80290
:10628A0062D10262DA0262E3900B247405F07F069F
:10629A0022900B287409F07F0A22900B2C740DF0BF
:1062AA007F0E22900B307411F07F1222900B3474FF
:1062BA0015F07F1622900B387419F07F1A22900B72
:1062CA003C741DF07F1E22900B407421F07F222225
:1062DA00900B447425F07F2622900B487429F07F96
:0562EA002A227F0022C2
:105BBB00500CB200000000000000000000000000CC
:035BCB00000000D7
:1082E300E4900E06F0A37407F07B017A0E79067F03
:0782F300041246F702795165
:1080C20074B22FF582E4340CF583E0FE74B22FF51E
:0A80D20082E4340CF583E4F0AF06FD
:0180DC002281
:1076E20012542890062AEFF0D39400402AE024B1E5
:1076F200F582E4340CF5837401F0125428EF60082B
:10770200125428EF601180F890062AE024B1F58225
:07771200E4340CF583E4F000
:01771900224D
:103A27002025203464002025203466000000000093
:103A370000000000004F000000000700070000140E
:103A47007F147F1400242A7F2A120023130864623C
:103A570000364955225000000503000000001C22D3
:103A67004100000041221C000014083E0814000811
:103A7700083E080800005030000000080808080841
:103A8700000060600000002010080402003E514959
:103A9700453E0000427F40000042615149460021F7
:103AA70041454B31001814127F1000274545453911
:103AB700003C4A494930000171090503003649496C
:103AC700493600064949291E000036360000000025
:103AD7005636000000081422410000141414141470
:103AE70000004122140800020151090600324979F9
:103AF700413E007E1111117E007F4949493E003E3B
:103B070041414122007F4141221C007F49494941EF
:103B1700007F09090901003E4149497A007F0808E9
:103B2700087F0000417F4100002040413F01007FA6
:103B370008142241007F40404040007F0204027F7A
:103B4700007F0408107F003E4141413E007F090984
:103B57000906003E4151215E007F091929460046AA
:103B6700494949310001017F0101003F4040403F81
:103B7700001F2040201F003F4038403F00631408CB
:103B870014630003047804030061514945430000AE
:103B97007F4141000015167C1615000041417F004A
:103BA70000040201020400404040404000000102BE
:103BB7000400002054545478007F484444380038A7
:103BC7004444442000384444487F0038545454182F
:103BD70000087E090102000C5252523E007F080481
:103BE70004780000447D4000002040443D00007FF1
:103BF700102844000000417F4000007E020C027C38
:103C0700007E0402027C003844444438007C1414CB
:103C1700140800081414187C007C080404080048E1
:103C27005454542000043F444020003C4040207C32
:103C3700001C2040201C003C4030403C0044281021
:103C47002844000C5050503C004464544C4400003D
:103C5700083641000000007F0000000041360800E0
:103C67000008040810080008082A1C0800081C2A75
:103C770008080004027F02040010207F2010001CA7
:0A3C87002A322A1C001C2244221CD1
:107E4B00C2C9ED24FF92CA7E08EF30E704D2CB8083
:0F7E5B0002C2CBC2CCEF25E0FFD2CCDEECD2C905
:017E6A0022F5
:107DC800E4FD7F80127E4B7F40127E4B7BF87A0168
:107DD8007D01E4FF127E4BEB1B70011AEB4A70F039
:017DE8002278
:10838D00AD07E4FF1283517C547D01E4FF127E4B57
:02839D00DCF70B
:01839F0022BB
:10835100AC05EF4480FFEC4440FCE4FD127E4BAFE2
:0483610004027E4B49
:07749300E0FF04F0A3E0FD9F
:10749A0074E02BFBEF75F006A4FF128351E4FC7530
:1074AA00F006EBA42433F582E5F0343AF583E5825D
:1074BA002CF582E43583F583E493FF7D01127E4B3C
:0574CA000CECB406DA31
:0174CF00229A
:10758400900DC7EFF0A3EDF0A3EBF0A3EAF0A3E9AD
:10759400F0900DC9E0FBA3E0FAA3E0F9120E72FB30
:1075A4006018900DC7E0C3940E500F127493900DA1
:0B75B400CAE475F001120F5380D722CB
:096EA200FDE0FBA3E0FAA3E0F916
:106EAB00900DCCEFF0A3EDF0A3EBF0A3EAF0A3E988
:106EBB00F0900DCEE0FBA3E0FAA3E0F9120E72FB0B
:106ECB006028900DCC127493900DCFE475F00112E5
:106EDB000F53900DCCE0B40E06E4F0A3E004F09059
:0B6EEB000DCDE0B406CBE4F080C72220
:0E6CC200900D3AEFF0A3EDF0A3EAF0A3EBF093
:106CD000A3E02402FFE433FE125D33AA06A9077B7A
:106CE00001900D3FEBF0A3EAF0A3E9F0900AC47421
:106CF000FFF0A3743AF0A37427F0900D3CE0FFA3DB
:106D0000E0900AC7CFF0A3EFF0121EEC900D3AE02E
:106D1000FFA3E0900D3F126EA2900D3FA3E0FAA3F7
:076D2000E0AE02FF0251ADDD
:086B7E00900D09EFF0A3EDF00A
:106B8600900D10E0FF900D0FE02FFFE433CF2403AC
:106B9600CF3400FE125D33AA06A9077B01900D11C2
:106BA600EBF0A3EAF0A3E9F0900AC474FFF0A37433
:106BB6003AF0A3742DF0900D0BE0FCA3E0FDA3E0EA
:106BC600FEA3E0FF900AC71211C7121EEC900D0932
:106BD600E0FFA3E0900D11126EA2900D11A3E0FA52
:086BE600A3E0AE02FF0251AD75
:10731500E4900E08F0A304F0FB7A0E79087F0512BD
:1073250046F7C2C8D2C8E4FD7F21127E4B7F061204
:107335007E4B7F13127E4B7FC8127E4B7F20127EC1
:107345004B7F0C127E4B7F40127E4B7F80127E4B13
:03735500027DC8EE
:025BCE00C118FC
:107A6100900E0B7405F0E4900E0AF07B017A0E790A
:107A71000A7F051246F712875C7FC812857B128741
:077A8100617FC812857BD371
:017A880022DB
:05875C00C2CDD218227D
:05876100D2CDC2182278
:107C9E00900E1DEFF0900E1DE0FF14F0EF6012122B
:107CAE00875C7FC812857B1287617FC812857B80B7
:027CBE00E422BE
:03876F00A218222B
:06872600900E1EEFF02290
:10655E00900DD1EFF07F337E337D737C3FA3E0F857
:10656E00A3E0F9A3E0FAA3E0FB120A9E600C400A36
:10657E00900DD21211D33F7333337FCD7ECC7D4C31
:10658E007C3D900DD2E0F8A3E0F9A3E0FAA3E0FB86
:10659E00120A9E500A900DD21211D33D4CCCCD90C2
:1065AE000DD1E02404FFC007A3E0FCA3E0FDA3E0AF
:1065BE00FEA3E0FF900DDC1211C7D007125A969081
:1065CE000DD2E0FCA3E0FDA3E0FEA3E0FF120B4919
:1065DE00900DD1E025E024E6F582E4340DF583EF4D
:0265EE00F02299
:107F6600900E1FEFF02404FF127A89900E1FE02571
:0E7F7600E024E5F582E4340DF5837401F02279
:107FDE00900E20EFF02404FF127BE9900E20E02596
:0D7FEE00E024E5F582E4340DF583E4F02293
:10856B00EF25E024E5F582E4340DF583E024FF22CA
:106BEE00E4900CA0F0A37408F07B017A0C79A07FDE
:106BFE00021246F7900CA17404F07B017A0C79A076
:106C0E007F021246F7D2A2D2A343BA80E4900CA21E
:106C1E00F0A3F0A3F0A304F0E4A3F0A3F0A3F0A379
:106C2E00F0A3F0A3F0A3F0A3F0A3F0A3F0A3F0A3BE
:106C3E00F07B017A0C79A27F02122AC37B017A0CB7
:0A6C4E0079A27F03122AC353BA7F14
:016C58002219
:05452300900BB6EFF063
:10452800E4900BC5F0A37480F07B017A0B79C57F0A
:10453800031246F7D2B743BA80E4900BC7F0A3F052
:10454800A3F0A304F0E4A3F0A3F0A3F0A3F0A3F076
:10455800A3F0A3740FF0E4A3F0A3F0A3F0A3F0A3D7
:10456800F0900BB6E0FF7B017A0B79C7122AC35390
:10457800BA7F900BB6E0FF7D10128527900BB6E04E
:10458800FF7D327C00126D8C900BB7E0FCA3E0FD40
:10459800A3E0FEA3E0FF900BB6E0FB75F025A42492
:1045A80040F582E4340AF5831211C7900BBBE0FC96
:1045B800A3E0FDA3E0FEA3E0FFEB75F025A42444EF
:1045C800F582E4340AF5831211C7900BBFE0FCA30F
:1045D800E0FDA3E0FEA3E0FFEB75F025A42452F56F
:1045E80082E4340AF5831211C7900BC3E0FEA3E0FE
:1045F800FFEB75F025A4244CF582E4340AF583EE2C
:10460800F0A3EFF0EB75F025A42440F582E4340A1A
:10461800F583E0F8A3E0F9A3E0FAA3E0FB900BB67A
:10462800E075F025A42444F582E4340AF583E0FC1F
:10463800A3E0FDA3E0FEA3E0FF120803C004C00549
:10464800C006C007900BB6E075F025A4244CF5828F
:10465800E4340AF583E0FCA3E0FDE4120B10A8049F
:10466800A905AA06AB07D007D006D005D004120AC0
:1046780001900BB6E0FB75F025A42448F582E434DC
:104688000AF5831211C7EB75F025A4244CF582E4D2
:10469800340AF583E0FCA3E0FDE4120B10A804A99A
:1046A80005AA06AB07900BB6E075F025A42452F5D1
:1046B80082E4340AF583E0FCA3E0FDA3E0FEA3E076
:1046C800FF120A01900BB6E0FB75F025A42456F5FD
:1046D80082E4340AF5831211C7EB75F025A4244E41
:0E46E800F582E4340AF5831211D300000000BD
:0146F60022A1
:05569700900D28EFF06A
:10569C00A3E0FCA3E0FDA3E0FEA3E0FF900D28E057
:1056AC00FB75F025A4243BF582E4340AF583121132
:1056BC00C7EB75F025A42456F582E4340AF583E093
:1056CC00F8A3E0F9A3E0FAA3E0FB900D29E0FCA31A
:1056DC00E0FDA3E0FEA3E0FF120A01900D28E075A7
:1056EC00F025A42448F582E4340AF583E0F8A3E01D
:1056FC00F9A3E0FAA3E0FB1208F8900D28E075F08E
:10570C0025A42440F582E4340AF583E0F8A3E0F9FB
:10571C00A3E0FAA3E0FB120807900D28E0FB75F05C
:10572C0025A4245CF582E4340AF5831211C7EB75C9
:10573C00F025A4245CF582E4340AF583E0FCA3E0B4
:10574C00FDA3E0FEA3E0FFE4FBFA79A07841120A86
:10575C0001900D2D1211C7900D2DE0FCA3E0FDA3BF
:10576C00E0FEA3E0FF900DDC1211C7900D28E0FFC6
:10577C00125A96900D28E0FB75F025A4243BF58277
:10578C00E4340AF583E0FCA3E0FDA3E0FEA3E0FF14
:10579C00EB75F025A4244EF582E4340AF58302114E
:0157AC00C735
:1081C800EF75F025A4244EF582E4340AF583E0FC2B
:0A81D800A3E0FDA3E0FEA3E0FF22F8
:107E6B00900E21EFF0127A89900E21E075F025A487
:107E7B00245AF582E4340AF583E4F0A304F0D32208
:107ECB00900E22EFF0127BE9900E22E075F025A4C4
:0F7EDB00245AF582E4340AF583E4F0A3F0D322AD
:107BC400C007900D53E0FCA3E0FDA3E0FEA3E0FF9B
:107BD4009006211211C7900D57E0FCA3E0FDD007D9
:057BE4001259AAD32292
:105E0400900D59EFF0C007E4FFFE7DB47C43A3E09E
:105E1400F8A3E0F9A3E0FAA3E0FB1208F8C004C079
:105E240005C006C007900D59E075F00EA424DCF5FA
:105E340082E4340BF583E0FCE4120B15D003D002AA
:105E4400D001D0001208F8C004C005C006C00790F5
:105E54000D59E075F00EA424E0F582E4340BF583CB
:105E6400E0FCA3E0FDA3E0FEA3E0FF7B567A0E79FD
:105E74004978401208F8900D59E075F00EA424D822
:105E8400F582E4340BF583E0F8A3E0F9A3E0FAA388
:105E9400E0FB1208F8A804A905AA06AB07D007D0AE
:105EA40006D005D004120A01120B49900D531211A9
:105EB400C7900D5EE0FFA3E0900D57CFF0A3EFF085
:075EC400D007127BC4D322BA
:106D2700900D60EFF0E0FEFFC00775F00EA424DCC5
:106D3700F582E4340BF583E0FCE4120B15900D614A
:106D4700E0F8A3E0F9A3E0FAA3E0FB1208F8900D3E
:106D570060E075F00EA424D8F582E4340BF583E0E7
:106D6700F8A3E0F9A3E0FAA3E0FB120A01120B492A
:106D77009006211211C7900D65E0FCA3E0FDD00736
:056D87001259AAD322FD
:1076A900900E0CEAF0A3EBF0C007AE04AF057C0125
:1076B9007D68120EECAC06AD07E4120B10900D615B
:1076C9001211C7900E0CE0FFA3E0900D65CFF0A357
:0976D900EFF0D007126D27D32257
:0F859A00EF7006900BE4EDF022900BF2EDF02263
:1084B000EF75F00EA424E4F582E4340BF583E0FFBD
:0184C0002299
:1080DD00EF7009201904C2A78002D2A7EFB40109DD
:0B80ED00201904C2A58002D2A5D322F6
:107FFB00900E23EFF0128018900E23E075F00EA474
:0D800B0024E4F582E4340BF5837401F022C7
:1083A000EF75F00EA424E4F582E4340BF583E4F0D9
:0383B000027F84C5
:10805200EF7004C2A68002C2A4EF75F00EA424E45D
:0C806200F582E4340BF5837401F0D322A6
:10806E00EF7004D2A68002D2A4EF75F00EA424E421
:0C807E00F582E4340BF5837402F0D32289
:05639200900CD2EFF0B9
:10639700E4900CDEF0A374F0F07B017A0C79DE7FD9
:1063A700021246F7900CD3E0FCA3E0FDA3E0FEA3A6
:1063B700E0FF900CD2E0FB75F00EA424D8F582E440
:1063C700340BF5831211C7900CD7E0FFEB75F00E75
:1063D700A424DCF582E4340BF583EFF0900CD8E0CD
:1063E700FEA3E0FFEB75F00EA424DDF582E4340B89
:1063F700F583EEF0A3EFF0900CDAE0FCA3E0FDA349
:10640700E0FEA3E0FFEB75F00EA424E0F582E43490
:106417000BF5831211C7EB75F00EA424E4F582E4A3
:0A642700340BF5837401F0027A0BC8
:10808A00900D75EFF0A3EDF0A37401F0E4A3F0A353
:0C809A00F0A3F07B017A0D7975026EF600
:10699D00E4900C63F0301A64F0E4FF126DED900C8E
:1069AD0063E025E0244FF582E4340CF583EEF0A38B
:1069BD00EFF0900C63E004F0E0C3940A40DB7B0140
:1069CD007A0C794F9006011211D344800000900685
:1069DD00051211D3000000007D0A7C0012412990A0
:1069ED000D421211C7900D42E0FCA3E0FDA3E0FEA5
:1069FD00A3E0FFA31211C7900D428003900D46E056
:0A6A0D00FCA3E0FDA3E0FEA3E0FF00
:016A1700225C
:075BD000440B9400000000EB
:106F9C00900336EFF01281E2900336E0FF12844644
:106FAC00900337E0FCA3E0FDA3E0FEA3E0FF900319
:106FBC0036E0FB75F00DA4249CF582E4340BF583CC
:106FCC001211C790033BE0FCA3E0FDA3E0FEA3E09D
:106FDC00FFEB75F00DA424A0F582E4340BF58302CD
:026FEC0011C7CB
:10735800AB07900D32E0FCA3E0FDA3E0FEA3E0FF45
:10736800EB75F00DA4249CF582E4340BF58312111F
:10737800C7900D36E0FCA3E0FDA3E0FEA3E0FFEB21
:1073880075F00DA424A0F582E4340BF5830211C72F
:055C5C00900BF3EFF0D6
:105C6100E4900C0AF0ED7003025D24E4F0900BF374
:105C7100E0FF127FC0900C0AE025E024F4F582E4F5
:105C8100340BF583EEF0A3EFF0900C0AE004F0E0A2
:105C9100C3940A40D87B017A0B79F4900601121162
:105CA100D3477FFF009006051211D3000000007D4D
:105CB1000A7C00124129120B49900C08EEF0A3EF67
:105CC100F0FDAC06E4120B10900BF3E075F00DA49F
:105CD100249CF582E4340BF583E0F8A3E0F9A3E01A
:105CE100FAA3E0FB1208F8900BF3E075F00DA42481
:105CF100A0F582E4340BF583E0F8A3E0F9A3E0FA20
:105D0100A3E0FB120807900B941211C7900B94E0CB
:105D1100FCA3E0FDA3E0FEA3E0FFA31211C7900BDB
:105D2100948003900B98E0FCA3E0FDA3E0FEA3E0C8
:015D3100FF72
:015D3200224E
:09867700900E0EEEF0A3EFF022CC
:09868000900E10EEF0A3EFF022C1
:06872C00900E24EFF02284
:06873200900E25EFF0227D
:085ECB007F8A7D647C007E01EA
:105ED300900619ECF0A3EDF0900617EEF0FAA3EF9D
:025EE300F0FBD2
:105EE500A3E0FEA3E0FFAD03AC02120EECAC06ADE1
:105EF50007E4120B10E4FBFA797A7844120A0112CE
:105F05000B4990061BEEF0A3EFF0900619E0FEA3F7
:105F1500E0FF7C007DFF120EFE90061DEFF07F0175
:105F250012801890061BE0FEA3E0FFE4FCFD90063E
:105F3500211211C7900617E0FCA3E0FD7F0112595D
:105F4500AA7F01127F84900619E0FEA3E0FFC394A7
:105F5500FFEE94005004AD07802590061DE0FF1468
:105F6500F0EF600CE4FBFA7DFF7F0212375380EA05
:105F7500900619E0FEA3E0FF7C007DFF120EFEE413
:075F8500FBFA7F0212375303
:015F8C0022F2
:107DE9007D967C007F127E02125ED37D967C007F99
:107DF900947E02125ED37D967C007F147E03025E20
:017E0900D3A5
:0B8644007D967C007F127E02025ED358
:107E0A007D967C007F147E03125ED37D967C007F74
:107E1A00947E02125ED37D967C007F127E02025E01
:017E2A00D384
:107C3200127A0B7FBC125ECD125ECB7D647C007F1C
:107C42005E7E01125ED3125ECB7D907C017F127E3E
:047C520002025ED3F9
:105BD700420C130000C114C115420C0B0000420C0B
:0D5BE7000F0000420C0D0000420C110000E8
:0A59AA0090061FECF0A3EDF0AB0730
:1059B400E4900625F0A3F090061FE0FEA3E0FFEBC1
:1059C40075F007A42419F582E4340CF583EEF0A3F2
:1059D400EFF0900621E0FCA3E0FDA3E0FEA3E0FFCE
:1059E400EB75F007A42415F582E4340CF583121149
:1059F400C7EB704F90061FE0FEA3E0FFD39414EEB4
:105A04009400403BAB07AA06E4F9F87F807E847DCE
:105A14001EFC1272D1E47B02FAF9F81272D1C3E4CB
:105A24009FFFE49E900627F0A3EFF0C214438F0477
:105A3400900627E0FCA3E0FDECF5D68DD78051D28B
:105A440014804D90061FE0FEA3E0FFD39414EE945F
:105A540000403BAB07AA06E4F9F87F807E847D1EF4
:105A6400FC1272D1E47B02FAF9F81272D1C3E49FFA
:105A7400FFE49E900627F0A3EFF0C21543D10190F6
:105A84000627E0FCA3E0FDECF5D48DD58002D21509
:015A9400D33E
:015A950022EE
:107F8400EF75F007A4241BF582E4340CF583740127
:0E7F9400F0EF7005438E10800343D108D32216
:10801800EF7005538EEF800353D1F7EF75F007A487
:0D802800241BF582E4340CF583E4F0D32230
:1083FE00EF75F007A4241BF582E4340CF583E0241A
:02840E00FF224B
:107A0B00E4900E12F0A304F0FB7A0E79127F0312AE
:107A1B0046F7900E137410F07B017A0E7912E4FF87
:0C7A2B001246F7E4900C1BF0900C22F0C7
:017A3700222C
:03006300026A1816
:106A1800C0E0C0F0C083C082C0D075D000C000C044
:106A280001C002C003C004C005C006C007E47F025D
:106A3800FEFDFC900C15E0F8A3E0F9A3E0FAA3E052
:106A4800FB120FE2C006C007900C0BE475F00112B0
:106A58000F53AFF0AB07FAE4F9F8D007D006C3122A
:106A68001123400CE4FF128018900C0BE4F0A3F003
:106A7800D007D006D005D004D003D002D001D00072
:0B6A8800D0D0D082D083D0F0D0E0321C
:03009B00026A9363
:106A9300C0E0C0F0C083C082C0D075D000C000C0C9
:106AA30001C002C003C004C005C006C007E47F02E2
:106AB300FEFDFC900C1CE0F8A3E0F9A3E0FAA3E0D0
:106AC300FB120FE2C006C007900C0DE475F0011233
:106AD3000F53AFF0AB07FAE4F9F8D007D006C312AF
:106AE3001123400C7F01128018900C0DE4F0A3F0E9
:106AF300D007D006D005D004D003D002D001D000F7
:0B6B0300D0D0D082D083D0F0D0E032A0
:09868900D280C281C282D2832298
:09869200C280D281D282C283228F
:09869B00C280C281C282C28322A6
:0986A400D280C281C282C283228D
:0986AD00C280D281C282C2832284
:0986B600D280C281D282C283226B
:0986BF00C280C281C282D2832272
:0986C800C280C281D282C2832269
:0986D100C280D281C282D2832250
:045BF4004108CF0095
:1075BF00EF75F04BA42418F582E43409F583E4F059
:1075CF00EF75F04BA42419F582E43409F583E4F048
:1075DF00EF75F04BA4241AF582E43409F583E4F037
:0B75EF007BFF7A1979EDAD0702855A89
:10841000EF75F04BA42418F582E43409F583740158
:02842000F02248
:1084C100EF75F04BA42418F582E43409F583E4F048
:0184D1002288
:10842200EF75F04BA42419F582E43409F583740145
:02843200F02236
:1084D200EF75F04BA42419F582E43409F583E4F036
:0184E2002277
:10709100EF75F04BA4241AF582E43409F583E0641A
:1070A100017031EF75F04BA424D8F582E43408F572
:1070B1008375F002ED121204E0FCA3E0FDEC120B6B
:1070C10010E4FBFAF97847120A01E4FBFA798078B7
:0A70D100410208F8E4FFFEFDFC2276
:1070DB00EF75F04BA4241AF582E43409F583E064D0
:1070EB00017031EF75F04BA424E0F582E43408F520
:1070FB008375F002ED121204E0FCA3E0FDEC120B21
:10710B0010E4FBFAF97847120A01E4FBFA79FA78F2
:0A711B00440208F8E4FFFEFDFC2228
:10785B00EF75F04BA424E8F582E43408F58375F05A
:10786B0002ED121204E0FCA3E0FDEC120B10E4FBA2
:10787B00FAF97847120A01E4FBFA793478431208D3
:02788B00F822E1
:10775200EF75F04BA4241AF582E43409F583E0B402
:10776200011EEF75F04BA424F0F582E43408F58392
:1077720075F002ED121204E0FCA3E0FDEC020B1026
:06778200E4FFFEFDFC2205
:1064CB00900D7BEBF0A3EAF0A3E9F0A3E0FBA3E0D4
:1064DB00FAA3E0F9900003120E8BFF900D7BE0FB0B
:1064EB00A3E0FAA3E0F9EF120EB8900D7EE0FBA348
:1064FB00E0FAA3E0F9900002120E8BFF900D7BE007
:10650B00FBA3E0FAA3E0F9900001EF120ECA900D85
:10651B007EE0FBA3E0FAA3E0F9900001120E8BFFE3
:10652B00900D7BE0FBA3E0FAA3E0F9900002EF12E1
:10653B000ECA900D7EE0FBA3E0FAA3E0F9120E72F7
:10654B00FF900D7BE0FBA3E0FAA3E0F9900003EFD3
:03655B00020ECA63
:0519ED00900AF1EFF08B
:1019F20075F04BA42418F582E43409F583E07003F2
:101A0200021E86900AF1E0FF75F04BA42419F582BC
:101A1200E43409F583E07003021E86EF75F04BA4EF
:101A2200241AF582E43409F583E4F090064FE06469
:101A320055600AE4900637F09008CFF022900637FE
:101A4200E0FF244FF582E43406F583E0FE74C32FF1
:101A5200F582E43408F583EEF0900637E0C3940B88
:101A62005003021E869008C4E024B0B4090040036B
:101A7200021E69901A8375F003A4C58325F0C583FD
:101A820073021A9E021B3E021B9E021BFE021C7E5A
:101A9200021CFD021D84021DCC021E019008C5E03D
:101AA200FF900AF1E0FE75F04BA424D0F582E434F5
:101AB20008F583EFF09008C6E0FFEE75F04BA42422
:101AC200D1F582E43408F583EFF09008C7E0FFEE29
:101AD20075F04BA424D2F582E43408F583EFF0903C
:101AE20008C8E0FFEE75F04BA424D3F582E4340875
:101AF200F583EFF09008C9E0FFEE75F04BA424D413
:101B0200F582E43408F583EFF09008CAE0FFEE7541
:101B1200F04BA424D5F582E43408F583EFF0900865
:101B2200CCE0FE9008CBE0FDEDFF900AF1E075F00D
:101B32004BA424D6F582E43408021D7A9008C6E04C
:101B4200FE9008C5E0FDEDFF900AF1E0FD75F04B57
:101B5200A424D8F582E43408F583EEF0A3EFF090E4
:101B620008C8E0FE9008C7E0FBEBFFED75F04BA460
:101B720024DAF582E43408F583EEF0A3EFF090085E
:101B8200CAE0FE9008C9E0FDEDFF900AF1E075F0B1
:101B92004BA424DCF582E43408021D7A9008C6E0E6
:101BA200FE9008C5E0FDEDFF900AF1E0FD75F04BF7
:101BB200A424E0F582E43408F583EEF0A3EFF0907C
:101BC20008C8E0FE9008C7E0FBEBFFED75F04BA400
:101BD20024E2F582E43408F583EEF0A3EFF09008F6
:101BE200CAE0FE9008C9E0FDEDFF900AF1E075F051
:101BF2004BA424E4F582E43408021D7A9008C6E07E
:101C0200FE9008C5E0FDEDFF900AF1E0FD75F04B96
:101C1200A424E8F582E43408F583EEF0A3EFF09013
:101C220008C8E0FE9008C7E0FBEBFFED75F04BA49F
:101C320024EAF582E43408F583EEF0A3EFF090088D
:101C4200CAE0FE9008C9E0FDEDFF900AF1E0FD75E3
:101C5200F04BA424ECF582E43408F583EEF0A3EF14
:101C6200F09008CCE0FE9008CBE0FBEBFFED75F0C6
:101C72004BA424EEF582E43408021D7A9008C6E0F3
:101C8200FE9008C5E0FDEDFF900AF1E0FD75F04B16
:101C9200A424F0F582E43408F583EEF0A3EFF0908B
:101CA20008C8E0FE9008C7E0FBEBFFED75F04BA41F
:101CB20024F2F582E43408F583EEF0A3EFF0900805
:101CC200CAE0FE9008C9E0FDEDFF900AF1E0FD7563
:101CD200F04BA424F4F582E43408F583EEF0A3EF8C
:101CE200F09008CCE0FE9008CBE0FBEBFFED75F046
:101CF2004BA424F6F582E43408807D9008C6E0FE09
:101D02009008C5E0FDEDFF900AF1E0FD75F04BA4EF
:101D120024F8F582E43408F583EEF0A3EFF090089E
:101D2200C8E0FE9008C7E0FBEBFFED75F04BA42482
:101D3200FAF582E43408F583EEF0A3EFF09008CAD6
:101D4200E0FE9008C9E0FDEDFF900AF1E0FD75F0BC
:101D52004BA424FCF582E43408F583EEF0A3EFF003
:101D62009008CCE0FE9008CBE0FBEBFFED75F04B6A
:101D7200A424FEF582E43408F583EEF0A3EFF0022A
:101D82001E699008C57412F0A37434F0A37456F05F
:101D9200A37478F0900AF1E075F04BA42400F97472
:101DA2000935F0FA7B01C003900D7EEBF0A37408B5
:101DB200F0A374C5F0D0031264CB900AF1E075F081
:101DC2004BA42404F97409021E50900AF1E075F044
:101DD2004BA42408F9740935F0FA7B01C003900D75
:101DE2007EEBF0A37408F0A374C5F0D0031264CBA9
:101DF200900AF1E075F04BA4240CF97409804F901D
:101E020008C6E0FE9008C5E0FDEDFF900AF1E0FD96
:101E120075F04BA42410F582E43409F583EEF0A3A7
:101E2200EFF09008C8E0FE9008C7E0FBEBFFED750D
:101E3200F04BA42412F582E43409F583EEF0A3EF0B
:101E4200F0900AF1E075F04BA42414F9740935F00E
:101E5200FA7B01C003900D7EEBF0A37408F0A3742B
:101E6200C9F0D0031264CBE49008CFF0900637F0AB
:101E7200900AF1E075F04BA4241AF582E43409F5D6
:041E8200837401F074
:011E86002239
:10836500E4900E14F0A374F0F07B017A0E79147F7B
:04837500020246F7C3
:10670C00ED14602814604314605E24037077EF75F9
:10671C00F005A42415F582E4340DF583E5822DF5FE
:10672C0082E43583F583E024FF92A722EF75F00510
:10673C00A42415F582E4340DF583E5822DF582E46D
:10674C003583F583E024FF92A622EF75F005A4248F
:10675C0015F582E4340DF583E5822DF582E435835D
:10676C00F583E024FF92A522EF75F005A42415F51E
:10677C0082E4340DF583E5822DF582E43583F583CF
:06678C00E024FF92A422AC
:10843400EF75F005A42414F582E4340DF58374017A
:02844400F02224
:0275FA00AE07DA
:1075FC00EE75F005A42414F582E4340DF583E4F063
:10760C00FCEE75F005A42415F582E4340DF583E544
:10761C00822CF582E43583F5837401F0AF06AD045A
:08762C0012670C0CECB404D948
:017634002233
:10792100EF75F005A42414F582E4340DF583E0B479
:10793100011DEF75F005A42415F582E4340DF583DE
:10794100E5822DF582E43583F583E4F012670C229C
:1078F000EF75F005A42414F582E4340DF583E0B4AB
:10790000011EEF75F005A42415F582E4340DF5830E
:10791000E5822DF582E43583F5837401F012670C5E
:017920002244
:107FA2003F065B4F666D7D077F6F777C395E797127
:0E7FB20040EF00000000000000000000000092
:0A5BF800080D00000000000000008E
:0574D000900631EFF011
:1074D500E4A3F0C2C17F017E001279DD900631E0A0
:1074E500FF30E004D2C08002C2C0EFC31390063162
:1074F500F0D2C17F017E001279DD900632E004F002
:06750500E0C3940840CD34
:01750B00225D
:1071FF00E4900632F0D2C0900631F0900632E0C330
:10720F0013F0C2C17F017E001279DD30C0079006F6
:10721F0032E04480F0D2C17F017E001279DD90060A
:10722F0031E004F0E0C3940840D17F017E00127971
:06723F00DD900632E0FFC5
:017245002226
:107EEA00900E26EFF0C2C27F017E001279DD900E5D
:0F7EFA0026E0FF1274D0D2C27F017E000279DD34
:10542800782B7C067D017BFF7A7F79B47E007F0430
:10543800120E4CE4900630F0C2C27F421274D07F44
:10544800F47E011279DDE490062FF01271FF9006C8
:105458002FE0242BF582E43406F583EFF090062F35
:10546800E004F0E0C3940440E2D2C290062BE0FFCF
:10547800B404099006307401F002555DEFB4400998
:105488009006307402F002555D90062CE0FFB404DB
:10549800099006307403F002555DEFB44009900698
:1054A800307404F002555D90062DE0FFB4040990B5
:1054B80006307405F002555DEFB44009900630746B
:1054C80006F002555D90062EE0FFB4040990063000
:1054D8007407F002555DEFB440089006307408F088
:1054E800807390062BE0FFB402089006307409F030
:1054F8008063EFB42008900630740AF08057900655
:105508002CE0FFB40208900630740BF08047EFB42B
:105518002008900630740CF0803B90062DE0FFB414
:105528000208900630740DF0802BEFB42008900626
:1055380030740EF0801F90062EE0FFB4020890062B
:1055480030740FF0800FEFB420089006307410F01C
:0A55580080037F0022900630E0FF80
:015562002226
:107951007F8A127EEA7F8A127EEA7F40127EEAC225
:10796100C27FC01274D0E4900E27F07FFF1274D052
:0E797100900E27E004F0E0C3941040EFD2C265
:01797F0022E5
:102E5D00900C94E0900C9DF0900C93E0900C9EF0F3
:102E6D00900C92E0900C9FF0900C91E0F9900C90EA
:102E7D00E0FAAE05AC06AD07900C9EE0907FA293F4
:102E8D00540125E0FF900C9DE0907FA29354012FFB
:102E9D00FF900C9FE0907FA293540125E025E02F39
:102EAD00FFE993540133333354F82FFFEA93540160
:102EBD00C454F02FFFEB935401C43354E02FFFECB7
:102ECD00935401C4333354C02FFFED935401C433D5
:102EDD00333354802F900C95F0900C9DE0907FA291
:102EED00935402C313FF900C9EE0907FA293540263
:102EFD002FFF900C9FE0907FA293540225E02FFFAF
:102F0D00E993540225E025E02FFFEA935402333371
:102F1D003354F82FFFEB935402C454F02FFFEC936E
:102F2D005402C43354E02FFFED935402C433335491
:102F3D00C02F900C96F0900C9EE0907FA2935404BD
:102F4D00C313FF900C9DE0907FA293540413135470
:102F5D003F2FFF900C9FE0907FA29354042FFFE929
:102F6D0093540425E02FFFEA93540425E025E02F28
:102F7D00FFEB93540433333354F82FFFEC93540485
:102F8D00C454F02FFFED935404C43354E02F900C30
:102F9D0097F0900C9EE0907FA29354081313543F2A
:102FAD00FF900C9DE0907FA2935408131313541FB0
:102FBD002FFF900C9FE0907FA2935408C3132FFF17
:102FCD00E99354082FFFEA93540825E02FFFEB9364
:102FDD00540825E025E02FFFEC9354083333335488
:102FED00F82FFFED935408C454F02F900C98F090E7
:102FFD000C9EE0907FA2935410131313541FFF9057
:10300D000C9DE0907FA2935410C4540F2FFF900C91
:10301D009FE0907FA29354101313543F2FFFE99319
:10302D005410C3132FFFEA9354102FFFEB9354103A
:10303D0025E02FFFEC93541025E025E02FFFED93B5
:10304D00541033333354F82F900C99F0900C9EE0BC
:10305D00907FA2935420C4540FFF900C9DE0907F5D
:10306D00A2935420C41354072FFF900C9FE0907F20
:10307D00A2935420131313541F2FFFE993542013BD
:10308D0013543F2FFFEA935420C3132FFFEB935498
:10309D00202FFFEC93542025E02FFFED9354202596
:1030AD00E025E02F900C9AF0900C9EE0907FA2937B
:1030BD005440C4135407FF900C9DE0907FA293548D
:1030CD0040C4131354032FFF900C9FE0907FA293E5
:1030DD005440C4540F2FFFE9935440131313541F3E
:1030ED002FFFEA9354401313543F2FFFEB9354409B
:1030FD00C3132FFFEC9354402FFFED93544025E065
:10310D002F900C9BF0900C9EE0907FA2935480C466
:10311D0013135403FF900C9DE0907FA2935480C431
:10312D0013131354012FFF900C9FE0907FA2935423
:10313D0080C41354072FFFE9935480C4540F2FFFFD
:10314D00EA935480131313541F2FFFEB93548013E2
:10315D0013543F2FFFEC935480FEC3132FFFED93B9
:10316D0054802F900C9CF07F8A127EEA7F40127E55
:10317D00EAC2C27FC01274D0900C95E0FF1274D0D9
:10318D007F801274D0900C96E0FF1274D0E4FF1281
:10319D0074D0900C97E0FF1274D0E4FF1274D090AD
:1031AD000C98E0FF1274D0E4FF1274D0900C99E0EB
:1031BD00FF1274D0E4FF1274D0900C9AE0FF1274D9
:1031CD00D0E4FF1274D0900C9BE0FF1274D0E4FF9A
:1031DD001274D0900C9CE0FF1274D0E4FF1274D0E6
:0231ED00D2C24C
:0131EF0022BD
:064BFA00900CE01211C74F
:104C000078E47C0C7D017BFF7A7F79B87E007F0899
:104C1000120E4C7F817E697D677CFF900CE0E0F88E
:104C2000A3E0F9A3E0FAA3E0FBD312110D500302B5
:104C30004D917FFF7EE07DF57C05900CE0E0F8A3D0
:104C4000A3A3E012110D4003024D91900CE0E0FC93
:104C5000EC33405FE4900CECF0E47B0AFAF9F89056
:104C60000CE0E0FCA3E0FDA3E0FEA3E0FF1272D1A4
:104C7000900CEDEBF0900CE0E0FCA3E0FDA3E0FE77
:104C8000A3E0FFE47B0AFAF9F81272D1900CE0126B
:104C900011C7900CEDE0FF900CECE024E4F582E409
:104CA000340CF583EFF0900CECE004F0E0B408A9CC
:104CB000024D57900CE0E0FCA3E0FDA3E0FEA3E072
:104CC000FF128710900CE01211C7E4900CECF0E496
:104CD000FFFEFDFC900CE0E0F8A3E0F9A3E0FAA3EE
:104CE000E0FBD312110D404FE47B0AFAF9F8900C67
:104CF000E0E0FCA3E0FDA3E0FEA3E0FF1272D19090
:104D00000CEDEBF0900CE0E0FCA3E0FDA3E0FEA3D3
:104D1000E0FFE47B0AFAF9F81272D1900CE012116C
:104D2000C7900CEDE0FF900CECE024E4F582E43455
:104D30000CF583EFF08012900CECE024E4F582E4B3
:104D4000340CF5837410F0800E900CECE004F0E06D
:104D500064086003024CCF900CEBE0FF900CEAE09B
:104D6000FD900CE9E0FB900CE8E0900C90F0900CCA
:104D7000E7E0900C91F0900CE6E0900C92F0900C33
:104D8000E5E0900C93F0900CE4E0900C94F0122E7F
:014D90005DC5
:014D910022FF
:058766007F80027EEAA5
:10716F009005FEEFF012864F7F90127B9E127B2DC3
:10717F007F01127B9E127B2D9005FEE014600E1492
:10718F00600F146010240370117FC2800A7FD280B9
:10719F00067FE280027FF2127B9E127B2D7FE3122D
:0871AF007B9E127B2D02873844
:1083110012864F7F90127B9E127B2DE4FF127B9E73
:06832100127B2D028738DB
:10782800E4900608F0A3F012864F7F91127B9E1217
:107838007B2D127C56900608EFF01285E0127C56DC
:10784800900609EFF0128738900608E0FEA3E0FDE5
:02785800EDFF42
:01785A00220B
:0881E20090033FEFF0A3EDF064
:1081EA00E4A3F0A37430F07B017A0379417F0302A0
:0281FA0046F746
:107FC000EF25E025E024C5F582E4340CF583E0706C
:0D7FD00003FEFF2212716F12831112782838
:017FDD002281
:10844600EF25E025E024C5F582E4340CF5837401BC
:02845600F02212
:1084E300EF25E025E024C5F582E4340CF583E4F0C0
:0184F3002266
:0882B100900DE9ECF0A3EDF0E3
:1082B900E4A3F0A3EFF07B017A0D79EBE4FF02462A
:0182C900F7BD
:0584F400900E28EFF0DE
:0B84F900E4FF00000FEFB408F90000E2
:018504002254
:045C0200410B9300BF
:10724600E4900336F0A37408F07B017A0379367F65
:10725600031246F79003367401F0A37404F07B0121
:107266007A0379367F031246F790033A7401F0E405
:10727600900338F0A304F0FB7A037938E4FF125F39
:057286008DC2B2C2B38D
:01728B0022E0
:10845800EF75F007A42475F582E4340BF5837401F5
:02846800F02200
:10850500EF75F007A42475F582E4340BF583E4F0E8
:018515002243
:10851600EF75F007A42475F582E4340BF583E0FFCC
:018526002232
:10837900EF75F007A42476F582E4340BF583E0FE6B
:04838900A3E0FF224C
:0537B20090038EEFF012
:1037B7009005F31211D3000000009005F71211D302
:1037C70000000000E49005FBF090038EE0FF75F029
:1037D70007A42475F582E4340BF583E07003023AFD
:1037E70026EF6003023906D2A8D2B37F05FE12790D
:1037F700DDC2B3E49005FBF0900B76E0FCA3E0FD9F
:10380700E4120B109003931211C79006001211D304
:1038170046EA6000900393E0FCA3E0FDA3E0FEA36B
:10382700E0FF126B0E90038F1211C790038FE0FC1D
:10383700A3E0FDA3E0FEA3E0FF9006007401F0A360
:1038470074F4F01265F090038F1211C790038FE0A4
:10385700FCA3E0FDA3E0FEA3E0FF1257AD90038FAA
:103867001211C790038FE0FCA3E0FDA3E0FEA3E0E5
:10387700FF9005FBE075F004A42497F582E5F0348A
:1038870003F5831211C79005FBE004F0E0C394969B
:1038970050030237FF7B017A0379979006011211D3
:1038A700D3477FFF009006051211D3000000007D6B
:1038B700967C001241299005EF1211C77F667ECFD3
:1038C7007D8B7C369005EFE0F8A3E0F9A3E0FAA33F
:1038D700E0FB1208F89005F31211C7E4FFFE7DAA7A
:1038E7007C439005F3E0F8A3E0F9A3E0FAA3E0FB3B
:1038F7001208F8E4FBFAF97840120A010239FE903F
:10390700038EE064016003023A26FF127FC0900B2A
:103917007DEEF0A3EFF0E49005FBF0900B7DE0FC6B
:10392700A3E0FDE4120B109003931211C790060059
:103937001211D346EA6000900393E0FCA3E0FDA3D5
:10394700E0FEA3E0FF126B0E90038F1211C79003E6
:103957008FE0FCA3E0FDA3E0FEA3E0FF9006007468
:1039670001F0A3742CF01265F090038F1211C79029
:10397700038FE0FCA3E0FDA3E0FEA3E0FF1257AD39
:1039870090038F1211C790038FE0FCA3E0FDA3E023
:10399700FEA3E0FF9005FBE075F004A42497F582F1
:1039A700E5F03403F5831211C79005FBE004F0E05E
:1039B700C3949650030239227B017A0379979006C4
:1039C700011211D3477FFF009006051211D30000A3
:1039D70000007D967C001241299005EF1211C7E483
:1039E700FFFE7D807C3C9005EFE0F8A3E0F9A3E0C3
:1039F700FAA3E0FB1208F89005F71211C79005F734
:103A0700E0FCA3E0FDA3E0FEA3E0FF90038EE075DA
:0F3A1700F007A42471F582E4340BF5831211C774
:013A2600227D
:1081FC00EF75F007A42471F582E4340BF583E0FCF1
:0A820C00A3E0FDA3E0FEA3E0FF22C3
:03000300026C5933
:106C5900C0E0C083C082C0D075D000C004C005C0E8
:106C690006C00730B20A43D180900B93E4F0803814
:106C790020B22D53D17FAFD2900B76E4F0A3EFF081
:106C8900E0FEADD37C00E42DFFEC3E900B76F0A343
:106C9900EFF075D20075D300900B937401F0800862
:106CA900900B93E4F053D17FD007D006D005D004E0
:096CB900D0D0D082D083D0E032AB
:105C0600450D233443101001450D1E344310100179
:1058B000900E29EFF0703EC295D294C2917B017A8E
:1058C0000D791E900D917405F07F2A1273987D0159
:1058D0007F211285497D017F22128549E4FD7F25C4
:1058E0001285497D207F311285497D077F261285EB
:1058F000497D0F8055900E29E064017059C295D200
:1059000094C2917B017A0D7923900D917405F07FFB
:10591000301273987B017A0D791E900D917405F009
:105920007F2A1273987D017F211285497D017F2294
:10593000128549E4FD7F251285497D077F26128562
:10594000497D207F311285497D0E7F201285497F58
:10595000147E000279DD900E29E06402704BC2953E
:10596000D294C2917B017A0D7923900D917405F048
:105970007F301273987B017A0D791E900D9174051A
:10598000F07F2A1273987D017F211285497D017F66
:1059900022128549E4FD7F251285497D077F261265
:0A59A00085497D207F3112854922E0
:10788D00900E2AEFF07FF47E011279DD900E2AE042
:10789D007006C2957D0F800B900E2AE0B40112C2C6
:1078AD00957D0E7F20128549D2957F147E00127929
:0278BD00DD22CA
:0B6FEE00900DEDEBF0A3EAF0A3E9F03A
:106FF900E4A3F07F071285ED12877512877B501E77
:10700900C295900DEDE0FBA3E0FAA3E0F9900DE441
:107019007420F07F611277F3900DF07401F01287FC
:1070290078AD077F27128549D2957FC87E001279EE
:06703900DD900DF0E0FF08
:01703F00222E
:10766F00900DFAEBF0A3EAF0A3E9F07DFF7F27126C
:10767F0085497DFF7FE1128549C295900DFAE0FBA8
:10768F00A3E0FAA3E0F9900D917420F07FA012739C
:0A769F0098D2957FC87E000279DDC5
:0A750C00900DFEEDF0900DFDEFF084
:10751600127B9E127B2D900DFEE0FF127B9E127B4E
:107526002D900DFDE04401FF127B9E127B2D127CF7
:1075360056900DFFEFF0128659128738900DFFE036
:01754600FF45
:017547002221
:10821600900E2BEFF07D077FD01282CA900E2BE0D6
:0A822600FF127B9E127B2D028738A9
:0E704000900DD6EFF0A3EBF0A3EAF0A3E9F079
:10704E0012864F900DD6E04401FF127B9E127B2DCF
:10705E00E4900DDAF0127C56900DD7E0FBA3E0FA27
:10706E00A3E0F9A3E0F582758300EF120ECA128534
:10707E00E0900DDAE004F0E0C3940740D812865990
:03708E000287383E
:0886DA007F077E0EDEFEDFFCCF
:0186E2002275
:0886E3007F027E63DEFEDFFC76
:0186EB00226C
:0886EC007F127E7FDEFEDFFC41
:0186F4002263
:0687180000007F39DFFEC6
:01871E002238
:06871F0000007F03DFFEF5
:018725002231
:0886F5007F037E52DEFEDFFC74
:0186FD00225A
:1079AF00E4FDD281128718FBFAEDC313FDC28112D9
:1079BF00871FD28112871F3081034480FD1286E317
:0D79CF000BBB00010AEB64084A70DEAF0537
:0179DC002288
:02798000AD0751
:10798200E4FBFAED30E00CC28112871FD28112862D
:10799200E3800AC2811286E3D28112871FEDC313EC
:0C79A200FD0BBB00010AEB64084A70D723
:0179AE0022B6
:10771A00E4FDFBFA7C01D2811286DAC2811286EC80
:10772A00D28130811EECB4011A0BBB00010A128708
:10773A0018D3EB9480EA943E4002E4FCA281E4333D
:08774A00FD80DFD2810286F50B
:0571250090036DEFF086
:10712A0012771A7FCC1279807F4412798012771AEB
:10713A007FCC1279807FBE1279801279AF90038C4E
:10714A00E4F0A3EFF01279AFEFFE90038CE04EFE6D
:10715A00A3E0FFFDAC06E4120B10E4FBFA79807899
:04716A003D1208F8D2
:01716E0022FE
:10846A00E4900336F0A304F0FB7A037936E4FF02C2
:02847A0046F7C3
:106EF600120E72F59D900001120E8BFFE5BC549F99
:106F06004FF5BC900002120E8BB4010543BC808085
:106F16000353BC7F900003120E8BB40105439720E8
:106F260080035397DF900005120E8BB40104D2AD97
:106F36008002C2AD900004120E8BB40103D2BD22B2
:036F4600C2BD22A7
:0C862C00EFB4010443BC802253BC7F2249
:106DED00EFD3940740028051E4F5BDF5BEE5BC54E8
:106DFD00E044084FF5BC00000000E4FBE5BC30E4C6
:106E0D003353BCEFE59730E509E5BD5403ADBEFC4A
:106E1D00801DAFBD7C00AD07ED7E007802C333CE83
:106E2D0033CED8F9FFE5BE5403FDEEFCEF4DFDAFBB
:0D6E3D0005AE04220BEBB4FAC37E047F0007
:016E4A002225
:03002B0002876BDE
:04876B0053BCEF32DA
:0F857B007D367C07ED1D70011C144C70F7DFF18D
:01858A0022CE
:1079DD00E4FCFDFB7A36796E7801120FE2E47B0C44
:1079ED00FAF9F81272D17B407A42790F780012724F
:0D79FD00D1EF4E600800EF1F70F71E80F400
:017A0A002259
:0E85A900E4F5C7F5C5F5C675C3FF75C4FF221E
:1073D800AD07AC06C2AF75C78075C501ECF5C3AF84
:1073E800058FC475C65A75C6A500E5C2120EB80D3C
:1073F800BD00010C740129F9E43AFA900D6C74FF90
:0F740800F5F0120F5345F070D31285A9D2AF22C1
:107E8B00AD07AC06C2AFECF5C3AF058FC475C780A9
:107E9B0075C50375C65A75C6A5001285A9D2AF2242
:10741700AD07AC06C2AF75C78075C502ECF5C3AF43
:10742700058FC4120E72F5C275C65A75C6A5000D32
:10743700BD00010C740129F9E43AFA900D7374FF49
:0F744700F5F0120F5345F070D31285A9D2AF2282
:03001300028784DD
:0187840032C2
:030053000287859C
:0187850032C1
:03005B0002878693
:0187860032C0
:030083000287876A
:0187870032BF
:105F8D00EFD3940440037F0122EF702D9000021295
:105F9D000E8BB40104D2A88002C2A8900001120E8B
:105FAD008BB40104D2B88002C2B8120E72B40104CF
:105FBD00D2888002C2887F0022EF6401702D90008C
:105FCD0002120E8BB40104D2AA8002C2AA90000163
:105FDD00120E8BB40104D2BA8002C2BA120E72B480
:105FED000104D28A8002C28A7F0022EFB40214908B
:105FFD000002120E8BB40105438F108003538FEFF7
:10600D007F0022EFB40314900002120E8BB4010531
:10601D00438F208003538FDF7F0022EFB404149051
:10602D000002120E8BB40105438F408003538FBFC6
:06603D007F00227F022219
:03877200A21B2225
:1046F700EFD3940540037F0122120E72FED3940379
:1047070040037F0222EF7041EE700B900001120E02
:104717008BF452935294120E72B4010B9000011253
:104727000E8B4293F45294120E72FEB4020A90005A
:1047370001120E8B42934294EEB4030D90000112C6
:104747000E8BFEF45293EE4294EF64017043120E07
:1047570072FE700B900001120E8BF452915292EE82
:10476700B4010B900001120E8B4291F45292120E7B
:1047770072B4020A900001120E8B42914292120EFD
:1047870072B4030D900001120E8BFEF45291EE42AB
:1047970092EF64027043120E72FE700B90000112CA
:1047A7000E8BF452955296EEB4010B900001120E47
:1047B7008B4295F45296120E72B4020A90000112BF
:1047C7000E8B42954296120E72B4030D90000112A1
:1047D7000E8BFEF45295EE4296EF64037043120E71
:1047E70072FE700B900001120E8BF452B152B2EEB2
:1047F700B4010B900001120E8B42B1F452B2120EAB
:1048070072B4020A900001120E8B42B142B2120E2C
:1048170072B4030D900001120E8BFEF452B1EE42FA
:10482700B2EF64047043120E72FE700B9000011217
:104837000E8BF452B352B4EEB4010B900001120E7A
:104847008B42B3F452B4120E72B4020A90000112F2
:104857000E8B42B342B4120E72B4030D90000112D4
:104867000E8BFEF452B3EE42B4EF64057043120EA2
:1048770072FF700B900001120E8BF452C952CAEFEF
:10488700B4010B900001120E8B42C9F452CA120EEA
:1048970072B4020A900001120E8B42C942CA120E6C
:1048A70072B4030D900001120E8BFFF452C9EF4250
:0448B700CA7F002292
:0785B700C2B51285BED2B46B
:0685BE0000007F39DFFE22
:0185C4002294
:0A864F00D2B51285B9C2B50285BE8E
:068738001285B7D2B52244
:0D85E000C2B41285B7C2B41285BED2B52256
:047B2900FF127B9E2E
:107B2D00E4FEC2B41285BED2B5D2B41285BE30B554
:107B3D000DEEC394FF50070EA2B5921780F0C2B49C
:027B4D00A2177D
:017B4F002213
:0A865900D2B5C2B41285B9C2B42232
:107C5600E4FEFDD2B41285BEEE25E0FE1285BE30EE
:107C6600B5054401FE8000C2B41285BE0DEDB40810
:037C7600E2AF0674
:017C790022E8
:027B9E00AE0730
:107BA000E4FDC2B41285BEEE5480FFC41313135417
:107BB0000124FF92B51285B9EE25E0FE0DEDB40863
:037BC000E1C2B46B
:017BC300229F
:1082CA00AC05AE0712864FAF06127B9E127B2DAF0E
:0982DA0004127B9E127B2DD322BD
:0B778800900D83EBF0A3EAF0A3E9F002
:107793001282CAE4FC900D86E0FFECC39F5019905F
:1077A3000D83E0FBA3E475F001120F69A9F0FA124F
:0B77B3000E72127B290C80DD0287386B
:106F4900900D89EBF0A3EAF0A3E9F0900D87EFF03B
:106F59001282CA12864FE04401127B29E4FC900D8B
:106F69008CE0FFECC39F5025127C56900D89E0FB05
:106F7900A3E475F001120F69A9F0FAEF120EB890A7
:106F89000D8CE0146C60031285E00C80D1128659D7
:036F990002873834
:1060F200EF7034D3ED9498EC940340047C037D98C4
:10610200C3ED9450EC940050047C007D50C2DE90AC
:106112000C6DECF0A3EDF0C374E89D900C68F07484
:10612200039C900C678073EF64017034D3ED946824
:10613200EC940B40047C0B7D68C3ED9450EC94000E
:1061420050047C007D50C2DE900C6FECF0A3EDF0A9
:10615200C374B89D900C6AF0740B9C900C69803AE1
:10616200EF64027038D3ED9480EC940740047C070E
:106172007D80C3ED9450EC940050047C007D50C2AD
:10618200DE900C71ECF0A3EDF0AE04FFC374D09F6F
:0E619200900C6CF074079E900C6BF0D2DE2225
:104A5B00900E00EBF0A3EAF0A3E9F0AD07EDD394D1
:104A6B00034003024BF9ED6403704CC2DEF5F9F51C
:104A7B00E9900E00E0FBA3E0FAA3E0F9120E72FF3F
:104A8B00E5A254CF4FF5A2900001120E8BFFE5D992
:104A9B0054F14FF5D9900004120E8B5401FFE5D958
:104AAB0054FE4FF5D9900005120E8BB40104D2BF02
:104ABB008002C2BFD2DE22900E00E0FBA3E0FAA37D
:104ACB00E02404F9E43AFA120E725431120EB89043
:104ADB000E00E0FBA3E0FAA3E0F9900002120E8BAC
:104AEB00C39448400FE92404F9E43AFA120E7254C5
:104AFB00CF120EB8ED704F900E00E0FBA3E0FAA3BF
:104B0B00E0F9900004120E8BFF900002120E8BFE48
:104B1B004FF5DA900003120E8BFFE5F2543F4FF581
:104B2B00F2900006120FAAFBAAF0900C6DEAF0A30C
:104B3B00EBF0C211900C64EEF0900C73EAF0A3EB67
:104B4B00F0F5EAEAF5FAED6401704F900E00E0FB28
:104B5B00A3E0FAA3E0F9900004120E8BFF90000281
:104B6B00120E8BFE4FF5DB900003120E8BFFE5F35D
:104B7B00543F4FF5F3900006120FAAFBAAF0900CCE
:104B8B006FEAF0A3EBF0C212900C65EEF0900C758F
:104B9B00EAF0A3EBF0F5EBEAF5FBED6402704F9056
:104BAB000E00E0FBA3E0FAA3E0F9900004120E8BD9
:104BBB00FF900002120E8BFE4FF5DC900003120EDD
:104BCB008BFFE5F4543F4FF5F4900006120FAAFD4E
:104BDB00ACF0900C71ECF0A3EDF0C213900C66EE00
:0F4BEB00F0900C77ECF0A3EDF0F5ECECF5FC227C
:1052EB00900E04ECF0A3EDF0900E03EFF0705ED394
:1052FB00EB9464EA940040047A007B64C3EB940162
:10530B00EA940050047A007B01C2DE900E04E0FEAA
:10531B00A3E0FFAD03AC02120EEC7C007D64120E19
:10532B00FE900C6DEEF0A3EFF07C007D64AF03AE4E
:10533B0002120EFEC374019FFFE49EFE900E04E06A
:10534B00FCA3E0FD120EEC900C67025420900E03B0
:10535B00E06401705DD3EB9464EA940040047A003E
:10536B007B64C3EB9401EA940050047A007B01C286
:10537B00DE7C007D64AF03AE02120EFE900E04E0E5
:10538B00FCA3E0FD120EEC900C6FEEF0A3EFF07CA3
:10539B00007D64AF03AE02120EFEC374019FFFE4E7
:1053AB009EFE900E04E0FCA3E0FD120EEC900C6947
:1053BB008063900E03E064027062D3EB9464EA9412
:1053CB000040047A007B64C3EB9401EA9400500420
:1053DB007A007B01C2DE7C007D64AF03AE02120E4D
:1053EB00FE900E04E0FCA3E0FD120EEC900C71EEAF
:1053FB00F0A3EFF0AE02AF037C007D64120EFEC390
:10540B0074019FFFE49EFE900E04E0FCA3E0FD12EE
:0D541B000EEC900C6BEEF0A3EFF0D2DE2251
:03003B000262EF6F
:1062EF00C0E0C083C082C0D075D000C006C00730E8
:1062FF00D82AC2D830A505900C6D8003900C67E0AA
:10630F00FEA3E0FF900C74E02FF0900C73E03EF0D2
:10631F00900C73E0FEA3E0F5EAEEF5FA30D92AC24D
:10632F00D930A605900C6F8003900C69E0FEA3E0B6
:10633F00FF900C76E02FF0900C75E03EF0900C750E
:10634F00E0FEA3E0F5EBEEF5FB30DA2AC2DA30A778
:10635F0005900C718003900C6BE0FEA3E0FF900C96
:10636F0078E02FF0900C77E03EF0900C77E0FEA3F2
:10637F00E0F5ECEEF5FCD007D006D0D0D082D0837C
:03638F00D0E03229
:106D8C00900E16ECF0A3EDF0AB07900E16E0FEA300
:106D9C00E0FFE4FCFDEB75F00AA42485F582E434F5
:106DAC000AF5831211C743BA8053F57FEB75F00ACD
:106DBC00A4248EF582E4340AF583E0FF7E00900E65
:106DCC0016E0FCA3E0FD120EECAB07AA06E4F9F802
:106DDC00FF7E367D6E7C011272D1127F0953BA7F11
:016DEC002284
:10823000EF75F00AA42485F582E4340AF583E0FCA6
:0A824000A3E0FDA3E0FEA3E0FF228F
:105A9600900DDBEFF07F337E337D737C3FA3E0F820
:105AA600A3E0F9A3E0FAA3E0FB120A9E600C400A09
:105AB600900DDC1211D33F7333337FCD7ECC7DCC7A
:105AC6007C3C900DDCE0F8A3E0F9A3E0FAA3E0FB50
:105AD600120A9E500A900DDC1211D33CCCCCCD900C
:105AE6000DDCE0FCA3E0FDA3E0FEA3E0FF900DDBF0
:105AF600E0FB75F00AA4248AF582E4340AF58312E1
:105B060011C743BA80EB75F00AA4248EF582E434FB
:105B16000AF583E0FFE4FCFDFEEB75F00AA424859C
:105B2600F582E4340AF583E0F8A3E0F9A3E0FAA3EA
:105B3600E0FB120FE2A804A905AA06AB077F007EC8
:105B4600367D6E7C0112106DE4120B0B900DDCE0BD
:105B5600F8A3E0F9A3E0FAA3E0FB1208F8120B4958
:105B6600AB07AA06900DDBE0FF7D0A7C00126431CC
:045B760053BA7F227D
:10824A00EF75F00AA4248AF582E4340AF583E0FC87
:0A825A00A3E0FDA3E0FEA3E0FF2275
:10852700EF75F00AA4248EF582E4340AF583EDF0A2
:018537002221
:10853800EF75F00AA4248EF582E4340AF583E0FF8F
:018548002210
:0A86630043BA8043F58053BA7F222A
:0A866D0043BA8053F57F53BA7F2211
:107A890043BA807401A807088002C333D8FC42F5C1
:107A9900EF75F00AA42489F582E4340AF5837401A8
:087AA900F043F58053BA7F227F
:107BE90043BA807401A807088002C333D8FCF45251
:107BF900F5EF75F00AA42489F582E4340AF583E4E3
:057C0900F053BA7F22D8
:10847C00EF75F00AA42489F582E4340AF583E0242C
:02848C00FF22CD
:052AC300900E18EFF079
:102AC800E4A3F0900E19E0FFC39406505AEF75F096
:102AD8000AA42485F582E4340AF5831211D3000090
:102AE8000000900E19E0FF75F00AA42489F582E42D
:102AF800340AF583E4F0EF75F00AA4248AF582E439
:102B0800340AF5831211D300000000900E19E07505
:102B1800F00AA4248EF582E4340AF5837401F09057
:102B28000E19E004F0809C43BA80120E72B40105BD
:102B380043F180800353F17F900001120E8BB401A2
:102B480014900E18E0FF7401A807088002C333D858
:102B5800FC42F18013900E18E0FF7401A80708806A
:102B680002C333D8FCF452F1900002120E8BB40168
:102B78000543F540800353F5BF900003120E8BB454
:102B88000114900E18E0FF7401A807088002C333EF
:102B9800D8FC42F58013900E18E0FF7401A80708CE
:102BA8008002C333D8FCF452F5900004120E8BB4A3
:102BB800010575F720800353F7DF900005120E8B8F
:102BC800B4010575F710800353F7EF900006120E55
:102BD8008BB4010575F708800353F7F790000712C7
:102BE8000E8BB4010575F704800353F7FB900008BA
:102BF800120E8BB4010575F702800353F7FD9000A0
:102C080009120E8B90FFF27006E054EFF08004E09A
:102C18004410F090FFF2C083C082E0FF90000A12D7
:102C28000E8BFEEF4ED082D083F0900E18E0146029
:102C380072147003022CFE147003022D51147003D9
:102C4800022DA4147003022DF524056003022E4CF6
:102C580090000B120E8B90FF047006E054F7F08082
:102C680004E04408F090000C120E8B90FF04B401AD
:102C780006E04404F08004E054FBF090000D120ECE
:102C88008B90FF04B40106E04402F08004E054FD98
:102C9800F090000E120E8B90FF04B40103022E4236
:102CA800022E4890000B120E8B90FF147006E05411
:102CB800F7F08004E04408F090000C120E8B90FFAF
:102CC80014B40106E04404F08004E054FBF09000E2
:102CD8000D120E8B90FF14B40106E04402F080043C
:102CE800E054FDF090000E120E8B90FF14B4010317
:102CF800022E42022E4890000B120E8B90FF247079
:102D080006E054F7F08004E04408F090000C120E3E
:102D18008B90FF24B40106E04404F08004E054FBE7
:102D2800F090000D120E8B90FF24B40106E04402CF
:102D3800F08004E054FDF090000E120E8B90FF24FA
:102D4800B40103022E42022E4890000B120E8B9003
:102D5800FF347006E054F7F08004E04408F0900077
:102D68000C120E8B90FF34B40106E04404F080048A
:102D7800E054FBF090000D120E8B90FF34B4010666
:102D8800E04402F08004E054FDF090000E120E8B37
:102D980090FF34B40103022E42022E4890000B1219
:102DA8000E8B90FF447006E054F7F08004E044086E
:102DB800F090000C120E8B90FF44B40106E044041E
:102DC800F08004E054FBF090000D120E8B90FF444D
:102DD800B40106E04402F08004E054FDF090000ED7
:102DE800120E8B90FF44B40102804F805390000B69
:102DF800120E8B90FF547006E054F7F08004E04404
:102E080008F090000C120E8B90FF54B40106E044B9
:102E180004F08004E054FBF090000D120E8B90FF3C
:102E280054B40106E04402F08004E054FDF0900040
:102E38000E120E8B90FF54B40106E04401F080049A
:102E4800E054FEF090000F120E8BB4010443F5809D
:042E58002253F57F8D
:012E5C002253
:056E4B00900C25EBF0A6
:106E5000E4900C27F0A3EDF07B017A0C7927124621
:106E6000F743BA80E4900C29F0A3F0A3F0A304F058
:106E7000E4A3F0A3F0A3F0A3F0A3F0A3F0900C26FA
:106E8000E0900C33F0E4A3F0A3F0A3F0A3F0A3F0A0
:106E9000900C25E0FF7B017A0C7929122AC353BAA2
:016EA0007F72
:016EA10022CE
:107F0900D3E49F74809E90FFF1400AEFF0EE90FF5A
:0F7F1900F0F07F002274FFF090FFF0747FF022F1
:10643100EF14602814603A14604C14605E146070AC
:10644100240560030264C890FF01EDF0EC90FF00A9
:10645100F090FF03EBF0EA90FF02806790FF11EDEF
:10646100F0EC90FF10F090FF13EBF0EA90FF128038
:106471005290FF21EDF0EC90FF20F090FF23EBF024
:10648100EA90FF22803D90FF31EDF0EC90FF30F07B
:1064910090FF33EBF0EA90FF32802890FF41EDF05E
:1064A100EC90FF40F090FF43EBF0EA90FF42801345
:1064B10090FF51EDF0EC90FF50F090FF53EBF0EABC
:0A64C10090FF52F07F00227F0122BD
:0A7C7A00EBF0A3EAF0A3E9F0C294D6
:107C8400E4FEEF339293EF25E0FFD291A292E43326
:097C94004FFFC2910EEEB408E9A5
:017C9D0022C4
:0C85ED00C294127C84E4FF127C84D294BF
:0185F900225F
:10854900C294127C84AC07AF05127C84D294AF0428
:0185590022FF
:0377F300900DE115
:1077F600127C7AAD07E4FC900DE4E0FFECC39F50E9
:107806001CE4FF127C84900DE1E0FBA3E0FAA3E008
:10781600F98C82758300EF120ECA0C80DAD294AF0F
:01782600055C
:01782700223E
:03739800900D8EC7
:10739B00127C7A900D92EFF07F0A7E001279DDE479
:1073AB00FD900D91E0FFEDC39F501A900D8EE0FB09
:1073BB00A3E475F001120F69A9F0FA120E72FF1215
:0C73CB007C840D80DCD294900D92E0FFD9
:0173D7002293
:038775008F202230
:03877800AF20220D
:06873E00EF24FF92062269
:03877B00A2062231
:105C1600410C4000410C4100420C420000420C4441
:105C26000000420C3C0000420C3A0000410C4E00C1
:105C3600410C3900410C3F00410C3E00440C46002B
:0A5C4600000000440C4A00000000BA
