:027E5400859017
:027E5E007402AC
:027E6600844B4B
:027E680040D206
:027E6C0082D0C2
:027E6E0085D1BC
:027E7000854843
:027E720085DDAC
:0D8590001275E17F05123641E4FF0236CA84
:10740200E4FF127F69AC06AD07E4120B107BC37A6E
:107412009B793978BA1208F87BFD7A0C794D78415C
:107422001208079003297401F01254CB7F011278DD
:0D7432006BE4FBFA7D1E7F0212375380C30E
:10844B00E4FF12708DE4FBFA7D1E7F02123753801E
:01845B00EF31
:1040D20090031C1211D3000000009003201211D390
:1040E20000000000E4900324F0E4900324F0E4FFD5
:1040F200127239E4FBFA7D047F02123753E4FF1295
:104102008336AC06AD07E4120B109002EC1211C715
:104112009003291211D346EA60009002ECE0FCA35E
:10412200E0FDA3E0FEA3E0FF126A769002E812111E
:10413200C79002E8E0FCA3E0FDA3E0FEA3E0FF904D
:104142000329E4F0A37464F01265589002E8121196
:10415200C79002E8E0FCA3E0FDA3E0FEA3E0FF12AB
:1041620057159002E81211C79002E8E0FCA3E0FDA7
:10417200A3E0FEA3E0FF900324E025E025E024F085
:10418200F582E43402F5831211C7900324E004F0AF
:10419200E0C3940A50030240F07B017A0279F09066
:1041A200032A1211D3477FFF0090032E1211D3006E
:1041B2000000007D0A7C00123EB49003181211C761
:1041C2007F667ECF7D8B7C36900318E0F8A3E0F902
:1041D200A3E0FAA3E0FB1208F890031C1211C7E453
:1041E200FF12708D7B5A7A64791B783F1208F87B34
:1041F200337AB379A5784312080790031CE0F8A339
:10420200E0F9A3E0FAA3E0FB1208F8E4FBFA79A0D4
:104212007841120A019003201211C7900320E0FC9A
:10422200A3E0FDA3E0FEA3E0FF9003261211C7E482
:10423200FF127DB3900320E0FCA3E0FDA3E0FEA308
:10424200E0FF9003297401F01254CBE4FF12708D49
:104252007B5A7A64791B783F1208F87B337AB379F8
:10426200A57843120807C004C005C006C0077F66D0
:104272007ECF7D8B7C369002ECE0F8A3E0F9A3E0E0
:10428200FAA3E0FB1208F8D003D002D001D000124A
:1042920008F8E4FBFA79A07841120A019003297424
:0D42A20002F01254CB7F0212786B0240EB49
:0C85D100E4FBFA7DC87F8012375380F471
:0C85DD00E4FBFA7D647F8012375380F4C9
:1082D000125390EF6003128601E4FBFA7D147F8055
:0582E00012375380EB92
:0F85480012768EE4FBFA7D147F8012375380F198
:107DD400535443313577346B353873342773205516
:107DE40041525431206973206F70656E200D0A0072
:10776A009002907440F0A37401F0A31211C7900222
:10777A00977401F0E4A3F0A304F0A3F0E4A3F0A348
:10778A00F07B017A0279907F0112130D7BFF7A7DDB
:05779A0079D40282A376
:01873B00221B
:1075E1007F807E257D007C0012776A126889128176
:1075F1008B1271AE1284279002911211D3BA399B6A
:10760100C39002951211D3414D0CFDE4FF126F049A
:0A761100E4FF128415E4FF02840375
:01873C00221A
:01873D002219
:01873E002218
:01873F002217
:018740002216
:105AE20044052C0000000042055C000044055E00F5
:035AF200000000B1
:103EB400900325EBF0A3EAF0A3E9F0A3ECF0A3ED63
:013EC400F00D
:103EC5009003341211D30000000090032EE0FCA3F0
:103ED500E0FDA3E0FEA3E0FF9003381211C79003B5
:103EE5002AE0FCA3E0FDA3E0FEA3E0FF90033C1263
:103EF50011C7E4900332F0A3F0900328E0FEA3E09D
:103F0500FF900332E0FCA3E0FDC39FEC9E4003025B
:103F15004031EDAE047802C333CE33CED8F9FF90ED
:103F25000325E0FBA3E0FAA3E0F98F828E8312114B
:103F350067900338E0F8A3E0F9A3E0FAA3E0FB12E9
:103F45000A9E5029900332E0FEA3E07802C333CEE7
:103F550033CED8F9FF900325E0FBA3E0FAA3E0F9FF
:103F65008F828E831211679003381211C790033226
:103F7500E0FEA3E07802C333CE33CED8F9FF900339
:103F850025E0FBA3E0FAA3E0F98F828E8312116787
:103F950090033CE0F8A3E0F9A3E0FAA3E0FB120AE2
:103FA5009E602B4029900332E0FEA3E07802C333E4
:103FB500CE33CED8F9FF900325E0FBA3E0FAA3E0CA
:103FC500F98F828E8312116790033C1211C79003FB
:103FD50034E0FCA3E0FDA3E0FEA3E0FFC004C005C0
:103FE500C006C007900332E0FEA3E07802C333CEDB
:103FF50033CED8F9FF900325E0FBA3E0FAA3E0F95F
:104005008F828E83121197D007D006D005D0041267
:1040150008079003341211C7900333E004F06003DE
:10402500023EFE900332E004F0023EFE900334E0CF
:10403500FCA3E0FDA3E0FEA3E0FFC004C005C006AD
:10404500C00790033CE0FCA3E0FDA3E0FEA3E0FF76
:10405500900338E0F8A3E0F9A3E0FAA3E0FB120827
:1040650007A804A905AA06AB07D007D006D005D036
:10407500041208039003341211C7900334E0FCA323
:10408500E0FDA3E0FEA3E0FFC004C005C006C00735
:10409500900329E024FEFD900328E034FFFCE412A0
:1040A5000B10A804A905AA06AB07D007D006D005B2
:1040B500D004120A019003341211C7900334E0FCB6
:0C40C500A3E0FDA3E0FEA3E0FF1285C411
:0140D10022CC
:064E7D009006261211C789
:104E830090062EE0FCA3E0FDA3E0FEA3E0FF900666
:104E9300361211C790062AE0FCA3E0FDA3E0FEA3AF
:104EA300E0FF90063A1211C7900524E0FCA3E0FD51
:104EB300A3E0FEA3E0FF90063E1211C7900524E095
:104EC300FCA3E0FDA3E0FEA3E0FF90063E1211C7A2
:104ED30090063AE0FCA3E0FDA3E0FEA3E0FF90050B
:104EE30028E0F8A3E0F9A3E0FAA3E0FB1208079097
:104EF30006461211C7900636E0FCA3E0FDA3E0FED0
:104F0300A3E0FF900646E0F8A3E0F9A3E0FAA3E0EC
:104F1300FB120807A804A905AA06AB07900646E0FA
:104F2300FCA3E0FDA3E0FEA3E0FF120A0190064A02
:104F33001211C790063EE0F8A3E0F9A3E0FAA3E05C
:104F4300FB900626E0FCA3E0FDA3E0FEA3E0FF1236
:104F5300080390064AE0F8A3E0F9A3E0FAA3E0FB14
:104F63001208F890063EE0F8A3E0F9A3E0FAA3E004
:104F7300FB1208079006421211C790064AE0F8A3F5
:104F8300E0F9A3E0FAA3E0FBE4FFFE7D807C3F129F
:104F93000803900646E0F8A3E0F9A3E0FAA3E0FBD8
:104FA3001208F89005281211C7900642E0FCA3E00E
:104FB300FDA3E0FEA3E0FF9005241211C790064273
:0B4FC300E0FCA3E0FDA3E0FEA3E0FF84
:014FCE0022C0
:066A76009003251211C778
:106A7C0090052CE0F8A3E0F9A3E0FAA3E0FB900367
:106A8C0025E0FCA3E0FDA3E0FEA3E0FF1208031247
:106A9C0085C4900329E0F8A3E0F9A3E0FAA3E0FB96
:106AAC00120A9E500F90052CE0FCA3E0FDA3E0FE23
:106ABC00A3E0FF22900325E0FCA3E0FDA3E0FEA3EE
:106ACC00E0FF90052C1211C7900325E0FCA3E0FD1C
:096ADC00A3E0FEA3E0FF1285C453
:016AE500228E
:065715009003251211C7EC
:10571B0090032B1211D300000000900325E0FCA393
:10572B00E0FDA3E0FEA3E0FF9005581211C7E49043
:10573B000329F0A3F0900329E0FEA3E0FFC3940A32
:10574B00EE940040030257FCEF7802C333CE33CE06
:10575B00D8F92434F58274053EF583E0FCA3E0FD13
:10576B00A3E0FEA3E0FFC004C005C006C007900382
:10577B0029E0FEA3E07802C333CE33CED8F9243030
:10578B00F58274053EF583D007D006D005D0041200
:10579B0011C790032BE0FCA3E0FDA3E0FEA3E0FF09
:1057AB00C004C005C006C007900329E0FEA3E07843
:1057BB0002C333CE33CED8F92430F58274053EF5CF
:1057CB0083E0F8A3E0F9A3E0FAA3E0FBD007D0064F
:1057DB00D005D00412080790032B1211C790032A8F
:1057EB00E004F06003025740900329E004F00257F5
:1057FB0040E4FBFA7920784190032BE0FCA3E0FD19
:0C580B00A3E0FEA3E0FF120A011285C416
:01581700226E
:1065580090032B1211C790055EE0F8A3E0F9A3E0C1
:10656800FAA3E0FB90032BE0FCA3E0FDA3E0FEA36D
:10657800E0FF1208031285C47B177AB779D17838FF
:10658800120A9E60054003D38001C3403D90055D1B
:10659800E004F0700690055CE004F0900329E0FE4A
:1065A800A3E0FFD390055DE09F90055CE09E40214D
:1065B800E4F0A3F090032BE0FCA3E0FDA3E0FEA32E
:1065C800E0FF90055E1211C78007E490055CF0A318
:0F65D800F090055EE0FCA3E0FDA3E0FEA3E0FF72
:0165E7002291
:104FCF00AB07EB75F041A4240DF582E43404F583AF
:104FDF001211D300000000EB75F041A42411F582EB
:104FEF00E43404F5831211D300000000EB75F04197
:104FFF00A42415F582E43404F5831211D3000000C4
:10500F0000EB75F041A42429F582E43404F58312F2
:10501F0011D300000000EB75F041A42425F582E4C4
:10502F003404F5831211D3000000009007DEE0FC7A
:10503F00A3E0FDA3E0FEA3E0FFEB75F041A424196C
:10504F00F582E43404F5831211C79007E2E0FCA364
:10505F00E0FDA3E0FEA3E0FFEB75F041A4241DF5F6
:10506F0082E43404F5831211C79007E6E0FCA3E055
:10507F00FDA3E0FEA3E0FFEB75F041A42421F58230
:10508F00E43404F5831211C7EB75F041A42419F52C
:10509F0082E43404F583E0FCA3E0FDA3E0FEA3E08B
:1050AF00FFEB75F041A42431F582E43404F583124B
:1050BF0011C7EB75F041A4241DF582E43404F58388
:1050CF00E0FCA3E0FDA3E0FEA3E0FFEB75F041A43D
:1050DF00242DF582E43404F5831211C7EB75F041EA
:1050EF00A42421F582E43404F583E0FCA3E0FDA3BE
:1050FF00E0FEA3E0FFEB75F041A42435F582E43424
:06510F0004F5830211C744
:1083A900EF75F041A42445F582E43404F5837401A2
:0283B900F022B0
:10845C00EF75F041A42445F582E43404F583E4F08F
:01846C0022ED
:1042AF009008FBEFF075F041A42445F582E4340447
:1042BF00F583E070030244899008FBE0FF75F0413D
:1042CF00A42409F582E43404F583E0F8A3E0F9A30C
:1042DF00E0FAA3E0FBEF75F041A42405F582E43486
:1042EF0004F583E0FCA3E0FDA3E0FEA3E0FF1208CA
:1042FF00039008FBE0FB75F041A4240DF582E43434
:10430F0004F5831211C7EB75F041A42425F582E45F
:10431F003404F583C083C082E0FCA3E0FDA3E0FE7C
:10432F00A3E0FF9008FBE075F041A4240DF582E4B3
:10433F003404F583E0F8A3E0F9A3E0FAA3E0FB125D
:10434F000807D082D0831211C79008FBE0FF75F0E9
:10435F0041A42425F582E43404F583E0F8A3E0F9C1
:10436F00A3E0FAA3E0FBEF75F041A4241DF582E46E
:10437F003404F583E0FCA3E0FDA3E0FEA3E0FF120D
:10438F0008F8C004C005C006C0079008FBE0FF7521
:10439F00F041A4240DF582E43404F583E0F8A3E0A2
:1043AF00F9A3E0FAA3E0FBEF75F041A42419F5821D
:1043BF00E43404F583E0FCA3E0FDA3E0FEA3E0FFFB
:1043CF001208F8D003D002D001D000120807C004A1
:1043DF00C005C006C0079008FBE0FF75F041A4249C
:1043EF0011F582E43404F583E0F8A3E0F9A3E0FAD1
:1043FF00A3E0FBEF75F041A4240DF582E43404F53E
:10440F0083E0FCA3E0FDA3E0FEA3E0FF120803900E
:10441F0008FBE075F041A42421F582E43404F58310
:10442F00E0F8A3E0F9A3E0FAA3E0FB1208F8D00349
:10443F00D002D001D0001208079008FBE0FB75F006
:10444F0041A42429F582E43404F5831211C7EB75D6
:10445F00F041A4240DF582E43404F583E0FCA3E0DD
:10446F00FDA3E0FEA3E0FFEB75F041A42411F5825C
:0C447F00E43404F5831211C7D322C322D9
:053C6E009008D2EFF008
:103C7300E0FF75F041A42409F582E43404F583E000
:103C8300F8A3E0F9A3E0FAA3E0FBEF75F041A42465
:103C930005F582E43404F583E0FCA3E0FDA3E0FE34
:103CA300A3E0FF1208039008D2E0FB75F041A424BF
:103CB3000DF582E43404F5831211C7EB75F041A4CA
:103CC3002445F582E43404F583E07003023EB2EB4D
:103CD30075F041A42441F582E43404F583E0FCA3A8
:103CE300E0FDA3E0FEA3E0FFEB75F041A4240DF596
:103CF30082E43404F583E0F8A3E0F9A3E0FAA3E057
:103D0300FB120A9E600B4009E49008D3F0A3F080F5
:103D13004E9008D3E4F0A304F09008D2E075F0418C
:103D2300A42425F582E43404F583C083C082E0FC37
:103D3300A3E0FDA3E0FEA3E0FF9008D2E075F0410D
:103D4300A4240DF582E43404F583E0F8A3E0F9A399
:103D5300E0FAA3E0FB120807D082D0831211C790C8
:103D630008D2E0FF75F041A42425F582E43404F57C
:103D730083E0F8A3E0F9A3E0FAA3E0FBEF75F041D9
:103D8300A4241DF582E43404F583E0FCA3E0FDA341
:103D9300E0FEA3E0FF1208F8C004C005C006C00798
:103DA3009008D3E0FCA3E0FDE4120B10D003D00293
:103DB300D001D0001208F8C004C005C006C00790A7
:103DC30008D2E0FF75F041A4240DF582E43404F534
:103DD30083E0F8A3E0F9A3E0FAA3E0FBEF75F04179
:103DE300A42419F582E43404F583E0FCA3E0FDA3E5
:103DF300E0FEA3E0FF1208F8D003D002D001D00008
:103E0300120807C004C005C006C0079008D2E0FF2F
:103E130075F041A42411F582E43404F583E0F8A39A
:103E2300E0F9A3E0FAA3E0FBEF75F041A4240DF55C
:103E330082E43404F583E0FCA3E0FDA3E0FEA3E009
:103E4300FF1208039008D2E075F041A42421F58203
:103E5300E43404F583E0F8A3E0F9A3E0FAA3E0FB7C
:103E63001208F8D003D002D001D00012080790083E
:103E7300D2E0FB75F041A42429F582E43404F583F0
:103E83001211C7EB75F041A4240DF582E43404F557
:103E930083E0FCA3E0FDA3E0FEA3E0FFEB75F041AC
:103EA300A42411F582E43404F5831211C7D322C389
:013EB30022EC
:0526EB009008D5EFF09E
:1026F000E0FF75F041A42409F582E43404F583E099
:10270000F8A3E0F9A3E0FAA3E0FBEF75F041A424FD
:1027100005F582E43404F583E0FCA3E0FDA3E0FECC
:10272000A3E0FF1208039008D5E0FB75F041A42454
:102730000DF582E43404F5831211C7EB75F041A462
:102740002445F582E43404F583E07003022AC1EBEA
:1027500075F041A42439F582E43404F583E0FCA348
:10276000E0FDA3E0FEA3E0FFEB75F041A42409F532
:1027700082E43404F583E0F8A3E0F9A3E0FAA3E0EF
:10278000FB120A9E6002500302280F9008D5E075E4
:10279000F041A4240DF582E43404F583E0FCA3E0C9
:1027A000FDA3E0FEA3E0FF120B491285F5AC06ADD8
:1027B00007EC120B109008D5E075F041A42441F508
:1027C00082E43404F583E0F8A3E0F9A3E0FAA3E09F
:1027D000FB120A9E500302291A9008D6E4F0A304C3
:1027E000F09008D5E075F041A4240DF582E434049E
:1027F000F583E0FCA3E0FDA3E0FEA3E0FFE4FBFA29
:10280000F9F8120A9E6002500302297102292B90E6
:1028100008D5E0FF75F041A42439F582E43404F5CD
:1028200083E0F8A3E0F9A3E0FAA3E0FBEF75F04141
:10283000A42409F582E43404F583E0FCA3E0FDA3BD
:10284000E0FEA3E0FF120A9E600250030228CF9030
:1028500008D5E075F041A4240DF582E43404F58335
:10286000E0FCA3E0FDA3E0FEA3E0FF120B4912850C
:10287000F5AC06AD07EC120B109008D5E075F041F1
:10288000A42441F582E43404F583E0F8A3E0F9A33D
:10289000E0FAA3E0FB120A9E5002807E9008D6E484
:1028A000F0A304F09008D5E075F041A4240DF58262
:1028B000E43404F583E0FCA3E0FDA3E0FEA3E0FF25
:1028C000E4FBFAF9F8120A9E4003022971805C9039
:1028D00008D5E075F041A4240DF582E43404F583B5
:1028E000E0FCA3E0FDA3E0FEA3E0FF120B4912858C
:1028F000F5AC06AD07EC120B109008D5E075F04171
:10290000A42441F582E43404F583E0F8A3E0F9A3BC
:10291000E0FAA3E0FB120A9E5009E49008D6F0A367
:10292000F0804E9008D6E4F0A304F09008D5E0754E
:10293000F041A42425F582E43404F583C083C082E9
:10294000E0FCA3E0FDA3E0FEA3E0FF9008D5E07566
:10295000F041A4240DF582E43404F583E0F8A3E00B
:10296000F9A3E0FAA3E0FB120807D082D08312118A
:10297000C79008D5E0FF75F041A42425F582E43422
:1029800004F583E0F8A3E0F9A3E0FAA3E0FBEF7518
:10299000F041A4241DF582E43404F583E0FCA3E0B7
:1029A000FDA3E0FEA3E0FF1208F8C004C005C006C6
:1029B000C0079008D6E0FCA3E0FDE4120B10D003A2
:1029C000D002D001D0001208F8C004C005C006C073
:1029D000079008D5E0FF75F041A4240DF582E4349A
:1029E00004F583E0F8A3E0F9A3E0FAA3E0FBEF75B8
:1029F000F041A42419F582E43404F583E0FCA3E05B
:102A0000FDA3E0FEA3E0FF1208F8D003D002D0013E
:102A1000D000120807C004C005C006C0079008D542
:102A2000E0FF75F041A42411F582E43404F583E05D
:102A3000F8A3E0F9A3E0FAA3E0FBEF75F041A424CA
:102A40000DF582E43404F583E0FCA3E0FDA3E0FE91
:102A5000A3E0FF1208039008D5E075F041A42421FB
:102A6000F582E43404F583E0F8A3E0F9A3E0FAA3E7
:102A7000E0FB1208F8D003D002D001D00012080702
:102A80009008D5E0FB75F041A42429F582E43404D4
:102A9000F5831211C7EB75F041A4240DF582E434DF
:102AA00004F583E0FCA3E0FDA3E0FEA3E0FFEB75EB
:102AB000F041A42411F582E43404F5831211C7D344
:022AC00022C32F
:012AC20022F1
:05230A009008D8EFF07F
:10230F00E0FF75F041A42409F582E43404F583E07D
:10231F00F8A3E0F9A3E0FAA3E0FBEF75F041A424E2
:10232F0005F582E43404F583E0FCA3E0FDA3E0FEB1
:10233F00A3E0FF1208039008D8E0FB75F041A42436
:10234F000DF582E43404F5831211C7EB75F041A447
:10235F002445F582E43404F583E070030226E9EBAB
:10236F0075F041A42439F582E43404F583E0FCA32D
:10237F00E0FDA3E0FEA3E0FFEB75F041A42409F517
:10238F0082E43404F583E0F8A3E0F9A3E0FAA3E0D4
:10239F00FB120A9E6002500302242E9008D8E075AB
:1023AF00F041A4240DF582E43404F583E0FCA3E0AE
:1023BF00FDA3E0FEA3E0FF120B491285F5AC06ADBD
:1023CF0007EC120B109008D8E075F041A42441F5EA
:1023DF0082E43404F583E0F8A3E0F9A3E0FAA3E084
:1023EF00FB120A9E50030225399008D9E4F0A3048A
:1023FF00F09008D8E075F041A4240DF582E4340480
:10240F00F583E0FCA3E0FDA3E0FEA3E0FFE4FBFA0D
:10241F00F9F8120A9E6002500302259002254A9095
:10242F0008D8E0FF75F041A42439F582E43404F5AF
:10243F0083E0F8A3E0F9A3E0FAA3E0FBEF75F04126
:10244F00A42409F582E43404F583E0FCA3E0FDA3A2
:10245F00E0FEA3E0FF120A9E600250030224EE90FA
:10246F0008D8E075F041A4240DF582E43404F58317
:10247F00E0FCA3E0FDA3E0FEA3E0FF120B491285F1
:10248F00F5AC06AD07EC120B109008D8E075F041D3
:10249F00A42441F582E43404F583E0F8A3E0F9A322
:1024AF00E0FAA3E0FB120A9E5002807E9008D9E466
:1024BF00F0A304F09008D8E075F041A4240DF58244
:1024CF00E43404F583E0FCA3E0FDA3E0FEA3E0FF0A
:1024DF00E4FBFAF9F8120A9E4003022590805C9003
:1024EF0008D8E075F041A4240DF582E43404F58397
:1024FF00E0FCA3E0FDA3E0FEA3E0FF120B49128571
:10250F00F5AC06AD07EC120B109008D8E075F04152
:10251F00A42441F582E43404F583E0F8A3E0F9A3A1
:10252F00E0FAA3E0FB120A9E5009E49008D9F0A349
:10253F00F0804E9008D9E4F0A304F09008D8E0752D
:10254F00F041A42425F582E43404F583C083C082CE
:10255F00E0FCA3E0FDA3E0FEA3E0FF9008D8E07548
:10256F00F041A4240DF582E43404F583E0F8A3E0F0
:10257F00F9A3E0FAA3E0FB120807D082D08312116F
:10258F00C79008D8E0FF75F041A42425F582E43404
:10259F0004F583E0F8A3E0F9A3E0FAA3E0FBEF75FD
:1025AF00F041A4241DF582E43404F583E0FCA3E09C
:1025BF00FDA3E0FEA3E0FF1208F8C004C005C006AB
:1025CF00C0079008D9E0FCA3E0FDE4120B10D00384
:1025DF00D002D001D0001208F8E4FBFAF9784012CB
:1025EF000A01C004C005C006C0079008D8E0FF75F7
:1025FF00F041A4240DF582E43404F583E0F8A3E060
:10260F00F9A3E0FAA3E0FBEF75F041A42419F582DA
:10261F00E43404F583E0FCA3E0FDA3E0FEA3E0FFB8
:10262F001208F8D003D002D001D000120807C0045E
:10263F00C005C006C0079008D8E0FF75F041A4247C
:10264F0011F582E43404F583E0F8A3E0F9A3E0FA8E
:10265F00A3E0FBEF75F041A4240DF582E43404F5FB
:10266F0083E0FCA3E0FDA3E0FEA3E0FF12080390CC
:10267F0008D8E075F041A42421F582E43404F583F1
:10268F00E0F8A3E0F9A3E0FAA3E0FB1208F8D00307
:10269F00D002D001D0001208079008D8E0FB75F0E7
:1026AF0041A42429F582E43404F5831211C7EB7594
:1026BF00F041A4240DF582E43404F583E0FCA3E09B
:1026CF00FDA3E0FEA3E0FFEB75F041A42411F5821A
:0B26DF00E43404F5831211C7D322C3BA
:0126EA0022CD
:104823009008FCEFF075F041A42445F582E43404CC
:10483300F583E070030249C19008FCE0FF75F04185
:10484300A42409F582E43404F583E0F8A3E0F9A392
:10485300E0FAA3E0FBEF75F041A42405F582E4340C
:1048630004F583E0FCA3E0FDA3E0FEA3E0FF120850
:10487300039008FCE0FB75F041A4240DF582E434B9
:1048830004F5831211C7EB75F041A42411F582E4FA
:104893003404F583E0FCA3E0FDA3E0FEA3E0FFEB1B
:1048A30075F041A4241DF582E43404F583E0F8A3F4
:1048B300E0F9A3E0FAA3E0FB1208F8C004C005C0C6
:1048C30006C0079008FCE0FF75F041A4240DF582B3
:1048D300E43404F583E0F8A3E0F9A3E0FAA3E0FBF2
:1048E300EF75F041A42419F582E43404F583E0FC68
:1048F300A3E0FDA3E0FEA3E0FF1208F8D003D0027B
:10490300D001D000120803C004C005C006C0079040
:1049130008FCE0FF75F041A42415F582E43404F5A6
:1049230083E0F8A3E0F9A3E0FAA3E0FBEF75F0411D
:10493300A42421F582E43404F583E0FCA3E0FDA381
:10494300E0FEA3E0FF1208F8D003D002D001D000AC
:104953001208079008FCE0FB75F041A42429F582B6
:10496300E43404F5831211C7EB75F041A42411F567
:1049730082E43404F583E0FCA3E0FDA3E0FEA3E0BE
:10498300FFEB75F041A42415F582E43404F583129A
:1049930011C7EB75F041A4240DF582E43404F583CB
:1049A300E0FCA3E0FDA3E0FEA3E0FFEB75F041A470
:1049B3002411F582E43404F5831211C7D322C322F0
:107C4800AB07900881E0FCA3E0FDA3E0FEA3E0FF02
:107C5800EB75F041A4243DF582E43404F583021168
:017C6800C754
:107C6900AB07900886E0FCA3E0FDA3E0FEA3E0FFDC
:107C7900EB75F041A42439F582E43404F58302114B
:017C8900C733
:107C8A00AB0790088BE0FCA3E0FDA3E0FEA3E0FFB6
:107C9A00EB75F041A42409F582E43404F58302115A
:017CAA00C712
:107CAB00AB07900890E0FCA3E0FDA3E0FEA3E0FF90
:107CBB00EB75F041A4241DF582E43404F583021125
:017CCB00C7F1
:107CCC00AB07900895E0FCA3E0FDA3E0FEA3E0FF6A
:107CDC00EB75F041A42419F582E43404F583021108
:017CEC00C7D0
:107CED00AB0790089AE0FCA3E0FDA3E0FEA3E0FF44
:107CFD00EB75F041A42421F582E43404F5830211DF
:017D0D00C7AE
:107D0E00AB0790089FE0FCA3E0FDA3E0FEA3E0FF1D
:107D1E00EB75F041A42405F582E43404F5830211D9
:017D2E00C78D
:1080A100EF75F041A42405F582E43404F583E0FC86
:0A80B100A3E0FDA3E0FEA3E0FF2220
:1080BB00EF75F041A4240DF582E43404F583E0FC64
:0A80CB00A3E0FDA3E0FEA3E0FF2206
:1080D500EF75F041A42411F582E43404F583E0FC46
:0A80E500A3E0FDA3E0FEA3E0FF22EC
:1080EF00EF75F041A42419F582E43404F583E0FC24
:0A80FF00A3E0FDA3E0FEA3E0FF22D2
:10810900EF75F041A4241DF582E43404F583E0FC05
:0A811900A3E0FDA3E0FEA3E0FF22B7
:10812300EF75F041A42421F582E43404F583E0FCE7
:0A813300A3E0FDA3E0FEA3E0FF229D
:10813D00EF75F041A42429F582E43404F583E0FCC5
:0A814D00A3E0FDA3E0FEA3E0FF2283
:10815700EF75F041A42425F582E43404F583E0FCAF
:0A816700A3E0FDA3E0FEA3E0FF2269
:107D2F00AB079008A4E0FCA3E0FDA3E0FEA3E0FFF7
:107D3F00EB75F041A42441F582E43404F58302117C
:017D4F00C76C
:1071F4009008FDEFF075F041A42445F582E43404D1
:10720400F583E0602FED24FE601214601714601CF7
:10721400240470209008FDE0FF0242AF9008FDE0D6
:10722400FF023C6E9008FDE0FF0226EB9008FDE0B3
:05723400FF12230A22F5
:10824100EF75F041A42445F582E43404F583E06040
:0982510007ED147003124823220A
:105AF500602A05FC00000000000000000000000016
:105B05000000000000000000000000000000000090
:0E5B1500000000000000000000000000000082
:10610800900331EBF0A3EAF0A3E9F0900003120E3C
:106118008BFF90032DE0FBA3E0FAA3E0F9A3E0FED8
:10612800F582758300EF120ECA900331E0FBA3E0FD
:10613800FAA3E0F9900002120E8BFFEE2401FDE4B1
:1061480033FC90032DE0FBA3E0FAA3E0F98D828CE9
:1061580083EF120ECA900331E0FBA3E0FAA3E0F943
:10616800900001120E8BFFEE2402FDE433FC900335
:106178002DE0FBA3E0FAA3E0F98D828C83EF120EE9
:10618800CA900331E0FBA3E0FAA3E0F9120E72FF14
:10619800EE2403FDE433FC90032DE0FBA3E0FAA317
:0A61A800E0F98D828C83EF020ECA2D
:05786B00900325EFF081
:10787000E4A3F0900325E0FF1261B2900326E0FE3E
:10788000C39F501774FC2EF582E43405F583E0FFA6
:0B789000127AFC900326E004F080D880
:01789B0022CA
:1054CB009003251211C7900329E0FFD3940A4003E0
:1054DB000255FEEF70030255FEEF14B40A004003B1
:1054EB000255FE9054FC75F003A4C58325F0C583CB
:1054FB007302551A02553002554702555E02557517
:10550B0002558B0255A10255B70255CD0255E390BA
:10551B00032D7401F0A37405F0A374FCF0A37401C4
:10552B00F0FB0255F790032D7401F0A37405F0A363
:10553B0074FCF0A37405F07B010255F790032D74F6
:10554B0001F0A37405F0A374FCF0A37409F07B01C4
:10555B000255F790032D7401F0A37405F0A374FCAE
:10556B00F0A3740DF07B010255F790032D7401F03D
:10557B00A37405F0A374FCF0A37411F07B01806C91
:10558B0090032D7401F0A37405F0A374FCF0A374C5
:10559B0015F07B01805690032D7401F0A37405F078
:1055AB00A374FCF0A37419F07B01804090032D745D
:1055BB0001F0A37405F0A374FCF0A3741DF07B0140
:1055CB00802A90032D7401F0A37405F0A374FCF0F2
:1055DB00A37421F07B01801490032D7401F0A3744C
:1055EB0005F0A374FCF0A37425F07B017A037925F5
:0455FB00126108220F
:1061B200EFD3940A5003EF70037F00229005FC7422
:1061C20024F0EF14B40A0040030262549061DC75BB
:1061D200F003A4C58325F0C583730261FA0262034A
:1061E20002620C02621502621E0262270262300221
:1061F200623902624202624B9006017405F07F0628
:10620200229006057409F07F0A22900609740DF0A7
:106212007F0E2290060D7411F07F122290061174E7
:1062220015F07F16229006157419F07F1A22900637
:1062320019741DF07F1E2290061D7421F07F222208
:106242009006217425F07F26229006257429F07F7E
:056252002A227F00225A
:105B23005007930000000000000000000000000088
:035B33000000006F
:10828C00E49008E7F0A37407F07B017A0879E77FA4
:07829C000412465F0278FDA9
:10806B0074932FF582E43407F583E0FE74932FF5B8
:0A807B0082E43407F583E4F0AF0659
:0180850022D8
:10768E00125390900359EFF0D39400402AE02492C5
:10769E00F582E43407F5837401F0125390EF60081D
:1076AE00125390EF601180F8900359E02492F58206
:0776BE00E43407F583E4F05A
:0176C50022A2
:1037B200202520346400202520346600000000000B
:1037C20000000000004F0000000007000700001486
:1037D2007F147F1400242A7F2A12002313086462B4
:1037E20000364955225000000503000000001C224B
:1037F2004100000041221C000014083E0814000889
:10380200083E0808000050300000000808080808B8
:10381200000060600000002010080402003E5149D0
:10382200453E0000427F400000426151494600216E
:1038320041454B31001814127F1000274545453988
:10384200003C4A49493000017109050300364949E3
:10385200493600064949291E00003636000000009C
:1038620056360000000814224100001414141414E7
:103872000000412214080002015109060032497970
:10388200413E007E1111117E007F4949493E003EB2
:1038920041414122007F4141221C007F4949494167
:1038A200007F09090901003E4149497A007F080861
:1038B200087F0000417F4100002040413F01007F1E
:1038C20008142241007F40404040007F0204027FF2
:1038D200007F0408107F003E4141413E007F0909FC
:1038E2000906003E4151215E007F09192946004622
:1038F200494949310001017F0101003F4040403FF9
:10390200001F2040201F003F4038403F0063140842
:103912001463000304780403006151494543000025
:103922007F4141000015167C1615000041417F00C1
:103932000004020102040040404040400000010235
:103942000400002054545478007F4844443800381E
:103952004444442000384444487F003854545418A6
:1039620000087E090102000C5252523E007F0804F8
:1039720004780000447D4000002040443D00007F68
:10398200102844000000417F4000007E020C027CAF
:10399200007E0402027C003844444438007C141443
:1039A200140800081414187C007C08040408004859
:1039B2005454542000043F444020003C4040207CAA
:1039C200001C2040201C003C4030403C0044281099
:1039D2002844000C5050503C004464544C440000B5
:1039E200083641000000007F000000004136080058
:1039F2000008040810080008082A1C0800081C2AED
:103A020008080004027F02040010207F2010001C1E
:0A3A12002A322A1C001C2244221C48
:107DF400C2C9ED24FF92CA7E08EF30E704D2CB80DB
:0F7E040002C2CBC2CCEF25E0FFD2CCDEECD2C95C
:017E1300224C
:107D5000E4FD7F80127DF47F40127DF47BF87A0190
:107D60007D01E4FF127DF4EB1B70011AEB4A70F009
:017D700022F0
:10834A00AD07E4FF1282FA7C547D01E4FF127DF44A
:02835A00DCF74E
:01835C0022FE
:1082FA00AC05EF4480FFEC4440FCE4FD127DF4AF92
:04830A0004027DF4F8
:07743F00E0FF04F0A3E0FDF3
:1074460074E02BFBEF75F006A4FF1282FAE4FC75DC
:10745600F006EBA424BEF582E5F03437F583E58229
:107466002CF582E43583F583E493FF7D01127DF4E8
:057476000CECB406DA85
:01747B0022EE
:107530009008A8EFF0A3EDF0A3EBF0A3EAF0A3E925
:10754000F09008AAE0FBA3E0FAA3E0F9120E72FBA8
:1075500060189008A8E0C3940E500F12743F900872
:0B756000ABE475F001120F5380D7223E
:096E0A00FDE0FBA3E0FAA3E0F9AE
:106E13009008ADEFF0A3EDF0A3EBF0A3EAF0A3E944
:106E2300F09008AFE0FBA3E0FAA3E0F9120E72FBC7
:106E330060289008AD12743F9008B0E475F0011219
:106E43000F539008ADE0B40E06E4F0A3E004F09015
:0B6E530008AEE0B406CBE4F080C722DC
:0E6C2A0090081BEFF0A3EDF0A3EAF0A3EBF04F
:106C3800A3E02402FFE433FE125C9BAA06A9077BAB
:106C480001900820EBF0A3EAF0A3E9F09005A17405
:106C5800FFF0A37437F0A374B2F090081DE0FFA30F
:106C6800E09005A4CFF0A3EFF0121EEC90081BE013
:106C7800FFA3E0900820126E0A900820A3E0FAA370
:076C8800E0AE02FF0251150E
:086AE6009007EAEFF0A3EDF0C8
:106AEE009007F1E0FF9007F0E02FFFE433CF24038F
:106AFE00CF3400FE125C9BAA06A9077B019007F219
:106B0E00EBF0A3EAF0A3E9F09005A174FFF0A374F3
:106B1E0037F0A374B8F09007ECE0FCA3E0FDA3E01F
:106B2E00FEA3E0FF9005A41211C7121EEC9007EA17
:106B3E00E0FFA3E09007F2126E0A9007F2A3E0FACC
:086B4E00A3E0AE02FF025115A5
:1072C100E49008E9F0A304F0FB7A0879E97F05125C
:1072D100465FC2C8D2C8E4FD7F21127DF47F061249
:1072E1007DF47F13127DF47FC8127DF47F20127D1F
:1072F100F47F0C127DF47F40127DF47F80127DF4C7
:03730100027D50BA
:025B3600C11894
:107A0D009008EC7405F0E49008EBF07B017A0879AE
:107A1D00EB7F0512465F1287197FC81285381287D2
:077A2D001E7FC8128538D34B
:017A3400222F
:05871900C2CDD21822C0
:05871E00D2CDC21822BB
:107C26009008FEEFF09008FEE0FF14F0EF601212ED
:107C360087197FC812853812871E7FC8128538803B
:027C4600E42236
:03872C00A218226E
:0686E3009008FFEFF022F9
:1064C6009008B2EFF07F337E337D737C3FA3E0F814
:1064D600A3E0F9A3E0FAA3E0FB120A9E600C400ACF
:1064E6009008B31211D33F7333337FCD7ECC7D4CEE
:1064F6007C3D9008B3E0F8A3E0F9A3E0FAA3E0FB43
:10650600120A9E500A9008B31211D33D4CCCCD907E
:1065160008B2E02404FFC007A3E0FCA3E0FDA3E06B
:10652600FEA3E0FF9008BD1211C7D0071259FE90D6
:1065360008B3E0FCA3E0FDA3E0FEA3E0FF120B49D5
:106546009008B2E025E024C7F582E43408F583EF2D
:02655600F02231
:107F0F00900900EFF02404FF127A35900900E02564
:0E7F1F00E024C6F582E43408F5837401F022F4
:107F8700900901EFF02404FF127B95900901E02589
:0D7F9700E024C6F582E43408F583E4F0220E
:10852800EF25E024C6F582E43408F583E024FF2231
:106B5600E4900781F0A37408F07B017A0779817FBE
:106B66000212465F9007827404F07B017A077981EE
:106B76007F0212465FD2A2D2A343BA80E490078373
:106B8600F0A3F0A3F0A304F0E4A3F0A3F0A3F0A312
:106B9600F0A3F0A3F0A3F0A3F0A3F0A3F0A3F0A357
:106BA600F07B017A0779837F02122AC37B017A0779
:0A6BB60079837F03122AC353BA7FCC
:016BC00022B2
:05448B00900697EFF020
:10449000E49006A6F0A37480F07B017A0679A67FEB
:1044A0000312465FD2B743BA80E49006A8F0A3F0A7
:1044B000A3F0A304F0E4A3F0A3F0A3F0A3F0A3F00F
:1044C000A3F0A3740FF0E4A3F0A3F0A3F0A3F0A370
:1044D000F0900697E0FF7B017A0679A8122AC35371
:1044E000BA7F900697E0FF7D101284E4900697E073
:1044F000FF7D327C00126CF4900698E0FCA3E0FD96
:10450000A3E0FEA3E0FF900697E0FB75F025A4244E
:10451000DFF582E43404F5831211C790069CE0FCB9
:10452000A3E0FDA3E0FEA3E0FFEB75F025A424E3E8
:10453000F582E43404F5831211C79006A0E0FCA3D1
:10454000E0FDA3E0FEA3E0FFEB75F025A424F1F568
:1045500082E43404F5831211C79006A4E0FEA3E0C0
:10456000FFEB75F025A424EBF582E43404F583EE2B
:10457000F0A3EFF0EB75F025A424DFF582E434041A
:10458000F583E0F8A3E0F9A3E0FAA3E0FB90069737
:10459000E075F025A424E3F582E43404F583E0FC1F
:1045A000A3E0FDA3E0FEA3E0FF120803C004C005E2
:1045B000C006C007900697E075F025A424EBF582AD
:1045C000E43404F583E0FCA3E0FDE4120B10A8043E
:1045D000A905AA06AB07D007D006D005D004120A59
:1045E00001900697E0FB75F025A424E7F582E434FA
:1045F00004F5831211C7EB75F025A424EBF582E4D2
:104600003404F583E0FCA3E0FDE4120B10A804A938
:1046100005AA06AB07900697E075F025A424F1F5EE
:1046200082E43404F583E0FCA3E0FDA3E0FEA3E014
:10463000FF120A01900697E0FB75F025A424F5F51A
:1046400082E43404F5831211C7EB75F025A424ED40
:0E465000F582E43404F5831211D3000000005B
:01465E002239
:0555FF00900809EFF027
:10560400A3E0FCA3E0FDA3E0FEA3E0FF900809E013
:10561400FB75F025A424DAF582E43404F583121131
:10562400C7EB75F025A424F5F582E43404F583E092
:10563400F8A3E0F9A3E0FAA3E0FB90080AE0FCA3D6
:10564400E0FDA3E0FEA3E0FF120A01900809E07563
:10565400F025A424E7F582E43404F583E0F8A3E01C
:10566400F9A3E0FAA3E0FB1208F8900809E075F04A
:1056740025A424DFF582E43404F583E0F8A3E0F9FB
:10568400A3E0FAA3E0FB120807900809E0FB75F019
:1056940025A424FBF582E43404F5831211C7EB75C9
:1056A400F025A424FBF582E43404F583E0FCA3E0B4
:1056B400FDA3E0FEA3E0FFE4FBFA79A07841120A1F
:1056C4000190080E1211C790080EE0FCA3E0FDA3A0
:1056D400E0FEA3E0FF9008BD1211C7900809E0FFA7
:1056E4001259FE900809E0FB75F025A424DAF5822E
:1056F400E43404F583E0FCA3E0FDA3E0FEA3E0FFB3
:10570400EB75F025A424EDF582E43404F58302114D
:01571400C7CD
:10817100EF75F025A424EDF582E43404F583E0FCE9
:0A818100A3E0FDA3E0FEA3E0FF224F
:107E1400900902EFF0127A35900902E075F025A47A
:107E240024F9F582E43404F583E4F0A304F0D322C6
:107E7400900903EFF0127B95900903E075F025A4B7
:0F7E840024F9F582E43404F583E4F0A3F0D3226B
:107B7000C007900834E0FCA3E0FDA3E0FEA3E0FF13
:107B80009003501211C7900838E0FCA3E0FDD00725
:057B9000125912D3227E
:105D6C0090083AEFF0C007E4FFFE7DB47C43A3E05B
:105D7C00F8A3E0F9A3E0FAA3E0FB1208F8C004C012
:105D8C0005C006C00790083AE075F00EA424BDF5D6
:105D9C0082E43406F583E0FCE4120B15D003D00248
:105DAC00D001D0001208F8C004C005C006C007908E
:105DBC00083AE075F00EA424C1F582E43406F583AC
:105DCC00E0FCA3E0FDA3E0FEA3E0FF7B567A0E7996
:105DDC004978401208F890083AE075F00EA424B9FE
:105DEC00F582E43406F583E0F8A3E0F9A3E0FAA326
:105DFC00E0FB1208F8A804A905AA06AB07D007D047
:105E0C0006D005D004120A01120B49900834121165
:105E1C00C790083FE0FFA3E0900838CFF0A3EFF065
:075E2C00D007127B70D322A6
:106C8F00900841EFF0E0FEFFC00775F00EA424BDA1
:106C9F00F582E43406F583E0FCE4120B159008420C
:106CAF00E0F8A3E0F9A3E0FAA3E0FB1208F89008DC
:106CBF0041E075F00EA424B9F582E43406F583E0C3
:106CCF00F8A3E0F9A3E0FAA3E0FB120A01120B49C3
:106CDF009003501211C7900846E0FCA3E0FDD007C7
:056CEF00125912D3222E
:107655009008EDEAF0A3EBF0C007AE04AF057C019E
:107665007D68120EECAC06AD07E4120B10900842D3
:107675001211C79008EDE0FFA3E0900846CFF0A3F4
:09768500EFF0D007126C8FD32244
:0F855700EF70069006C5EDF0229006D3EDF022EE
:10846D00EF75F00EA424C5F582E43406F583E0FF24
:01847D0022DC
:10808600EF7009201904C2A78002D2A7EFB4010934
:0B809600201904C2A58002D2A5D3224D
:107FA400900904EFF0127FC1900904E075F00EA46B
:0D7FB40024C5F582E43406F5837401F02243
:10835D00EF75F00EA424C5F582E43406F583E4F040
:03836D00027F2D5F
:107FFB00EF7004C2A68002C2A4EF75F00EA424C5D4
:0C800B00F582E43406F5837401F0D32202
:10801700EF7004D2A68002D2A4EF75F00EA424C597
:0C802700F582E43406F5837402F0D322E5
:0562FA009007B3EFF076
:1062FF00E49007BFF0A374F0F07B017A0779BF7FBA
:10630F000212465F9007B4E0FCA3E0FDA3E0FEA3FA
:10631F00E0FF9007B3E0FB75F00EA424B9F582E41B
:10632F003406F5831211C79007B8E0FFEB75F00E36
:10633F00A424BDF582E43406F583EFF09007B9E0AD
:10634F00FEA3E0FFEB75F00EA424BEF582E4340645
:10635F00F583EEF0A3EFF09007BBE0FCA3E0FDA305
:10636F00E0FEA3E0FFEB75F00EA424C1F582E43448
:10637F0006F5831211C7EB75F00EA424C5F582E460
:0A638F003406F5837401F00279B7BB
:10803300900856EFF0A3EDF0A37401F0E4A3F0A3CE
:0C804300F0A3F07B017A087956026E5E13
:10690500E4900744F0301A64F0E4FF126D559007E7
:1069150044E025E02430F582E43407F583EEF0A366
:10692500EFF0900744E004F0E0C3940A40DB7B01FC
:106935007A07793090032A1211D34480000090031E
:106945002E1211D3000000007D0A7C00123EB49087
:1069550008231211C7900823E0FCA3E0FDA3E0FE85
:10696500A3E0FFA31211C79008238003900827E036
:0A697500FCA3E0FDA3E0FEA3E0FF99
:01697F0022F5
:075B380044067500000000A7
:106F0400900290EFF012818B900290E0FF128403C4
:106F1400900291E0FCA3E0FDA3E0FEA3E0FF900259
:106F240090E0FB75F00DA4247DF582E43406F5832E
:106F34001211C7900295E0FCA3E0FDA3E0FEA3E0DC
:106F4400FFEB75F00DA42481F582E43406F5830289
:026F540011C763
:10730400AB07900813E0FCA3E0FDA3E0FEA3E0FFBD
:10731400EB75F00DA4247DF582E43406F583121197
:10732400C7900817E0FCA3E0FDA3E0FEA3E0FFEB99
:1073340075F00DA42481F582E43406F5830211C7A7
:055BC4009006D4EFF093
:105BC900E49006EBF0ED7003025C8CE4F09006D4EF
:105BD900E0FF127F699006EBE025E024D5F582E429
:105BE9003406F583EEF0A3EFF09006EBE004F0E065
:105BF900C3940A40D87B017A0679D590032A1211F9
:105C0900D3477FFF0090032E1211D3000000007DBF
:105C19000A7C00123EB4120B499006E9EEF0A3EF9C
:105C2900F0FDAC06E4120B109006D4E075F00DA45B
:105C3900247DF582E43406F583E0F8A3E0F9A3E0D6
:105C4900FAA3E0FB1208F89006D4E075F00DA4243D
:105C590081F582E43406F583E0F8A3E0F9A3E0FADC
:105C6900A3E0FB1208079006751211C7900675E0AC
:105C7900FCA3E0FDA3E0FEA3E0FFA31211C7900679
:105C8900758003900679E0FCA3E0FDA3E0FEA3E0A4
:015C9900FF0B
:015C9A0022E7
:098634009008EFEEF0A3EFF02234
:09863D009008F1EEF0A3EFF02229
:0686E900900905EFF022EC
:0686EF00900906EFF022E5
:085E33007F8A7D647C007E0182
:105E3B00900348ECF0A3EDF0900346EEF0FAA3EFDD
:025E4B00F0FB6A
:105E4D00A3E0FEA3E0FFAD03AC02120EECAC06AD79
:105E5D0007E4120B10E4FBFA797A7844120A011266
:105E6D000B4990034AEEF0A3EFF0900348E0FEA338
:105E7D00E0FF7C007DFF120EFE90034CEFF07F01E2
:105E8D00127FC190034AE0FEA3E0FFE4FCFD900306
:105E9D00501211C7900346E0FCA3E0FD7F0112599B
:105EAD00127F01127F2D900348E0FEA3E0FFC39403
:105EBD00FFEE94005004AD07802590034CE0FF14D5
:105ECD00F0EF600CE4FBFA7DFF7F0212375380EA9E
:105EDD00900348E0FEA3E0FF7C007DFF120EFEE480
:075EED00FBFA7F021237539C
:015EF400228B
:107D71007D967C007F127E02125E3B7D967C007FA9
:107D8100947E02125E3B7D967C007F147E03025E30
:017D91003BB6
:0B8601007D967C007F127E02025E3B33
:107D92007D967C007F147E03125E3B7D967C007F85
:107DA200947E02125E3B7D967C007F127E02025E12
:017DB2003B95
:107BBA001279B77FBC125E35125E337D647C007F1A
:107BCA005E7E01125E3B125E337D907C017F127EE7
:047BDA0002025E3B0A
:105B3F004206F40000C114C1154206EC00004206F3
:0D5B4F00F000004206EE00004206F20000E9
:0A59120090034EECF0A3EDF0AB079C
:10591C00E4900354F0A3F090034EE0FEA3E0FFEB01
:10592C0075F007A424FAF582E43406F583EEF0A3AF
:10593C00EFF0900350E0FCA3E0FDA3E0FEA3E0FF3A
:10594C00EB75F007A424F6F582E43406F583121106
:10595C00C7EB704F90034EE0FEA3E0FFD39414EE20
:10596C009400403BAB07AA06E4F9F87F807E847D67
:10597C001EFC12727DE47B02FAF9F812727DC3E40C
:10598C009FFFE49E900356F0A3EFF0C214438F04E4
:10599C00900356E0FCA3E0FDECF5D68DD78051D2F8
:1059AC0014804D90034EE0FEA3E0FFD39414EE94CC
:1059BC0000403BAB07AA06E4F9F87F807E847D1E8D
:1059CC00FC12727DE47B02FAF9F812727DC3E49F3B
:1059DC00FFE49E900356F0A3EFF0C21543D1019063
:1059EC000356E0FCA3E0FDECF5D48DD58002D21576
:0159FC00D3D7
:0159FD002287
:107F2D00EF75F007A424FCF582E43406F5837401A3
:0E7F3D00F0EF7005438E10800343D108D3226D
:107FC100EF7005538EEF800353D1F7EF75F007A4DF
:0D7FD10024FCF582E43406F583E4F0D322AD
:1083BB00EF75F007A424FCF582E43406F583E02482
:0283CB00FF228F
:1079B700E49008F3F0A304F0FB7A0879F37F03124D
:1079C700465F9008F47410F07B017A0879F3E4FFBE
:0C79D70012465FE49006FCF0900703F0FD
:0179E3002281
:03006300026980AF
:10698000C0E0C0F0C083C082C0D075D000C000C0DD
:1069900001C002C003C004C005C006C007E47F02F6
:1069A000FEFDFC9006F6E0F8A3E0F9A3E0FAA3E010
:1069B000FB120FE2C006C0079006ECE475F001126E
:1069C0000F53AFF0AB07FAE4F9F8D007D006C312C3
:1069D0001123400CE4FF127FC19006ECE4F0A3F019
:1069E000D007D006D005D004D003D002D001D0000B
:0B69F000D0D0D082D083D0F0D0E032B5
:03009B000269FBFC
:1069FB00C0E0C0F0C083C082C0D075D000C000C062
:106A0B0001C002C003C004C005C006C007E47F027A
:106A1B00FEFDFC9006FDE0F8A3E0F9A3E0FAA3E08D
:106A2B00FB120FE2C006C0079006EEE475F00112F0
:106A3B000F53AFF0AB07FAE4F9F8D007D006C31247
:106A4B001123400C7F01127FC19006EEE4F0A3F0FE
:106A5B00D007D006D005D004D003D002D001D0008F
:0B6A6B00D0D0D082D083D0F0D0E03239
:09864600D280C281C282D28322DB
:09864F00C280D281D282C28322D2
:09865800C280C281C282C28322E9
:09866100D280C281C282C28322D0
:09866A00C280D281C282C28322C7
:09867300D280C281D282C28322AE
:09867C00C280C281C282D28322B5
:09868500C280C281D282C28322AC
:09868E00C280D281C282D2832293
:045B5C0041036E0093
:10756B00EF75F04BA424B7F582E43403F583E4F014
:10757B00EF75F04BA424B8F582E43403F583E4F003
:10758B00EF75F04BA424B9F582E43403F583E4F0F2
:0B759B007BFF7A1979EDAD0702851720
:1083CD00EF75F04BA424B7F582E43403F583740103
:0283DD00F0228C
:10847E00EF75F04BA424B7F582E43403F583E4F0F2
:01848E0022CB
:1083DF00EF75F04BA424B8F582E43403F5837401F0
:0283EF00F0227A
:10848F00EF75F04BA424B8F582E43403F583E4F0E0
:01849F0022BA
:106FF900EF75F04BA424B9F582E43403F583E0641A
:10700900017031EF75F04BA42477F582E43403F570
:107019008375F002ED121204E0FCA3E0FDEC120B03
:1070290010E4FBFAF97847120A01E4FBFA7980784F
:0A703900410208F8E4FFFEFDFC220E
:10704300EF75F04BA424B9F582E43403F583E064CF
:10705300017031EF75F04BA4247FF582E43403F51E
:107063008375F002ED121204E0FCA3E0FDEC120BB9
:1070730010E4FBFAF97847120A01E4FBFA79FA788B
:0A708300440208F8E4FFFEFDFC22C1
:10780700EF75F04BA42487F582E43403F58375F014
:1078170002ED121204E0FCA3E0FDEC120B10E4FBF6
:10782700FAF97847120A01E4FBFA79347843120827
:02783700F82235
:1076FE00EF75F04BA424B9F582E43403F583E0B4BE
:10770E00011EEF75F04BA4248FF582E43403F5834C
:10771E0075F002ED121204E0FCA3E0FDEC020B107A
:06772E00E4FFFEFDFC2259
:1064330090085CEBF0A3EAF0A3E9F0A3E0FBA3E090
:10644300FAA3E0F9900003120E8BFF90085CE0FBC7
:10645300A3E0FAA3E0F9EF120EB890085FE0FBA304
:10646300E0FAA3E0F9900002120E8BFF90085CE0C3
:10647300FBA3E0FAA3E0F9900001EF120ECA900823
:106483005FE0FBA3E0FAA3E0F9900001120E8BFF9B
:1064930090085CE0FBA3E0FAA3E0F9900002EF129E
:1064A3000ECA90085FE0FBA3E0FAA3E0F9120E72B4
:1064B300FF90085CE0FBA3E0FAA3E0F9900003EF90
:0364C300020ECAFC
:0519ED009005CEEFF0B3
:1019F20075F04BA424B7F582E43403F583E0700359
:101A0200021E869005CEE0FF75F04BA424B8F58245
:101A1200E43403F583E07003021E86EF75F04BA4F5
:101A220024B9F582E43403F583E4F090001CE06409
:101A320055600AE4900004F090036EF022900004D6
:101A4200E0FF241CF582E43400F583E0FE74622F8B
:101A5200F582E43403F583EEF0900004E0C3940BC6
:101A62005003021E86900363E024B0B409004003D1
:101A7200021E69901A8375F003A4C58325F0C583FD
:101A820073021A9E021B3E021B9E021BFE021C7E5A
:101A9200021CFD021D84021DCC021E01900364E0A3
:101AA200FF9005CEE0FE75F04BA4246FF582E4347E
:101AB20003F583EFF0900365E0FFEE75F04BA4248D
:101AC20070F582E43403F583EFF0900366E0FFEEF5
:101AD20075F04BA42471F582E43403F583EFF090A2
:101AE2000367E0FFEE75F04BA42472F582E4340341
:101AF200F583EFF0900368E0FFEE75F04BA42473DA
:101B0200F582E43403F583EFF0900369E0FFEE75AC
:101B1200F04BA42474F582E43403F583EFF09003D0
:101B22006BE0FE90036AE0FDEDFF9005CEE075F0FC
:101B32004BA42475F582E43403021D7A900365E018
:101B4200FE900364E0FDEDFF9005CEE0FD75F04BE5
:101B5200A42477F582E43403F583EEF0A3EFF0904A
:101B62000367E0FE900366E0FBEBFFED75F04BA42C
:101B72002479F582E43403F583EEF0A3EFF09003C9
:101B820069E0FE900368E0FDEDFF9005CEE075F0A0
:101B92004BA4247BF582E43403021D7A900365E0B2
:101BA200FE900364E0FDEDFF9005CEE0FD75F04B85
:101BB200A4247FF582E43403F583EEF0A3EFF090E2
:101BC2000367E0FE900366E0FBEBFFED75F04BA4CC
:101BD2002481F582E43403F583EEF0A3EFF0900361
:101BE20069E0FE900368E0FDEDFF9005CEE075F040
:101BF2004BA42483F582E43403021D7A900365E04A
:101C0200FE900364E0FDEDFF9005CEE0FD75F04B24
:101C1200A42487F582E43403F583EEF0A3EFF09079
:101C22000367E0FE900366E0FBEBFFED75F04BA46B
:101C32002489F582E43403F583EEF0A3EFF09003F8
:101C420069E0FE900368E0FDEDFF9005CEE0FD75D2
:101C5200F04BA4248BF582E43403F583EEF0A3EF7A
:101C6200F090036BE0FE90036AE0FBEBFFED75F092
:101C72004BA4248DF582E43403021D7A900365E0BF
:101C8200FE900364E0FDEDFF9005CEE0FD75F04BA4
:101C9200A4248FF582E43403F583EEF0A3EFF090F1
:101CA2000367E0FE900366E0FBEBFFED75F04BA4EB
:101CB2002491F582E43403F583EEF0A3EFF0900370
:101CC20069E0FE900368E0FDEDFF9005CEE0FD7552
:101CD200F04BA42493F582E43403F583EEF0A3EFF2
:101CE200F090036BE0FE90036AE0FBEBFFED75F012
:101CF2004BA42495F582E43403807D900365E0FED5
:101D0200900364E0FDEDFF9005CEE0FD75F04BA47D
:101D12002497F582E43403F583EEF0A3EFF0900309
:101D220067E0FE900366E0FBEBFFED75F04BA42449
:101D320099F582E43403F583EEF0A3EFF0900369A2
:101D4200E0FE900368E0FDEDFF9005CEE0FD75F04A
:101D52004BA4249BF582E43403F583EEF0A3EFF069
:101D620090036BE0FE90036AE0FBEBFFED75F04B36
:101D7200A4249DF582E43403F583EEF0A3EFF00290
:101D82001E699003647412F0A37434F0A37456F0C5
:101D9200A37478F09005CEE075F04BA4249FF974FB
:101DA2000335F0FA7B01C00390085FEBF0A37403E4
:101DB200F0A37464F0D0031264339005CEE075F0A2
:101DC2004BA424A3F97403021E509005CEE075F0D3
:101DD2004BA424A7F9740335F0FA7B01C0039008E1
:101DE2005FEBF0A37403F0A37464F0D003126433C6
:101DF2009005CEE075F04BA424ABF97403804F90AC
:101E02000365E0FE900364E0FDEDFF9005CEE0FD8A
:101E120075F04BA424AFF582E43403F583EEF0A30E
:101E2200EFF0900367E0FE900366E0FBEBFFED75D9
:101E3200F04BA424B1F582E43403F583EEF0A3EF72
:101E4200F09005CEE075F04BA424B3F9740335F09D
:101E5200FA7B01C00390085FEBF0A37403F0A37454
:101E620068F0D003126433E490036EF0900004F043
:101E72009005CEE075F04BA424B9F582E43403F565
:041E8200837401F074
:011E86002239
:10830E00E49008F5F0A374F0F07B017A0879F57F1C
:04831E000202465FB2
:10667400ED14602814604314605E24037077EF7592
:10668400F005A424F6F582E43407F583E5822DF5BC
:1066940082E43583F583E024FF92A722EF75F005A9
:1066A400A424F6F582E43407F583E5822DF582E42B
:1066B4003583F583E024FF92A622EF75F005A42428
:1066C400F6F582E43407F583E5822DF582E435831B
:1066D400F583E024FF92A522EF75F005A424F6F5D6
:1066E40082E43407F583E5822DF582E43583F5836E
:0666F400E024FF92A42245
:1083F100EF75F005A424F5F582E43407F5837401E3
:02840100F02267
:0275A600AE072E
:1075A800EE75F005A424F5F582E43407F583E4F0DC
:1075B800FCEE75F005A424F6F582E43407F583E5BE
:1075C800822CF582E43583F5837401F0AF06AD04AF
:0875D8001266740CECB404D936
:0175E0002288
:1078CD00EF75F005A424F5F582E43407F583E0B4F3
:1078DD00011DEF75F005A424F6F582E43407F58358
:1078ED00E5822DF582E43583F583E4F0126674228A
:10789C00EF75F005A424F5F582E43407F583E0B424
:1078AC00011EEF75F005A424F6F582E43407F58388
:1078BC00E5822DF582E43583F5837401F01266744C
:0178CC002299
:107F4B003F065B4F666D7D077F6F777C395E79717E
:0E7F5B0040EF000000000000000000000000E9
:0A5B6000080D000000000000000026
:05747C00900360EFF039
:10748100E4A3F0C2C17F017E00127989900360E01C
:10749100FF30E004D2C08002C2C0EFC3139003608A
:1074A100F0D2C17F017E00127989900361E004F07E
:0674B100E0C3940840CD89
:0174B70022B2
:10716700E4900361F0D2C0900360F0900361E0C344
:1071770013F0C2C17F017E0012798930C0079003E6
:1071870061E04480F0D2C17F017E001279899003CB
:1071970060E004F0E0C3940840D17F017E001279DB
:0671A70089900361E0FF86
:0171AD0022BF
:107E9300900907EFF0C2C27F017E00127989900931
:0F7EA30007E0FF12747CD2C27F017E0002798952
:10539000785A7C037D017BFF7A7F795D7E007F04F4
:1053A000120E4CE490035FF0C2C27F4212747C7F05
:1053B000F47E01127989E490035EF0127167900324
:1053C0005EE0245AF582E43403F583EFF090035E47
:1053D000E004F0E0C3940440E2D2C290035AE0FF3C
:1053E000B4040990035F7401F00254C5EFB440099E
:1053F00090035F7402F00254C590035BE0FFB404B5
:105400000990035F7403F00254C5EFB440099003A0
:105410005F7404F00254C590035CE0FFB40409908B
:10542000035F7405F00254C5EFB4400990035F7444
:1054300006F00254C590035DE0FFB4040990035FD9
:105440007407F00254C5EFB4400890035F7408F08D
:10545000807390035AE0FFB4020890035F7409F070
:105460008063EFB4200890035F740AF080579003C4
:105470005BE0FFB4020890035F740BF08047EFB469
:10548000200890035F740CF0803B90035CE0FFB455
:10549000020890035F740DF0802BEFB42008900396
:1054A0005F740EF0801F90035DE0FFB4020890036C
:1054B0005F740FF0800FEFB4200890035F7410F05A
:0A54C00080037F002290035FE0FFED
:0154CA0022BF
:1078FD007F8A127E937F8A127E937F40127E93C27F
:10790D00C27FC012747CE4900908F07FFF12747C72
:0E791D00900908E004F0E0C3941040EFD2C2DD
:01792B002239
:102E5D00900775E090077EF0900774E090077FF083
:102E6D00900773E0900780F0900772E0F99007717A
:102E7D00E0FAAE05AC06AD0790077FE0907F4B936F
:102E8D00540125E0FF90077EE0907F4B9354012F76
:102E9D00FF900780E0907F4B93540125E025E02FB4
:102EAD00FFE993540133333354F82FFFEA93540160
:102EBD00C454F02FFFEB935401C43354E02FFFECB7
:102ECD00935401C4333354C02FFFED935401C433D5
:102EDD00333354802F900776F090077EE0907F4B30
:102EED00935402C313FF90077FE0907F4B935402DE
:102EFD002FFF900780E0907F4B93540225E02FFF2A
:102F0D00E993540225E025E02FFFEA935402333371
:102F1D003354F82FFFEB935402C454F02FFFEC936E
:102F2D005402C43354E02FFFED935402C433335491
:102F3D00C02F900777F090077FE0907F4B9354045C
:102F4D00C313FF90077EE0907F4B935404131354EB
:102F5D003F2FFF900780E0907F4B9354042FFFE9A4
:102F6D0093540425E02FFFEA93540425E025E02F28
:102F7D00FFEB93540433333354F82FFFEC93540485
:102F8D00C454F02FFFED935404C43354E02F900735
:102F9D0078F090077FE0907F4B9354081313543FC4
:102FAD00FF90077EE0907F4B935408131313541F2B
:102FBD002FFF900780E0907F4B935408C3132FFF92
:102FCD00E99354082FFFEA93540825E02FFFEB9364
:102FDD00540825E025E02FFFEC9354083333335488
:102FED00F82FFFED935408C454F02F900779F0900B
:102FFD00077FE0907F4B935410131313541FFF90D2
:10300D00077EE0907F4B935410C4540F2FFF900711
:10301D0080E0907F4B9354101313543F2FFFE9938F
:10302D005410C3132FFFEA9354102FFFEB9354103A
:10303D0025E02FFFEC93541025E025E02FFFED93B5
:10304D00541033333354F82F90077AF090077FE004
:10305D00907F4B935420C4540FFF90077EE0907FD8
:10306D004B935420C41354072FFF900780E0907F9B
:10307D004B935420131313541F2FFFE99354201314
:10308D0013543F2FFFEA935420C3132FFFEB935498
:10309D00202FFFEC93542025E02FFFED9354202596
:1030AD00E025E02F90077BF090077FE0907F4B931A
:1030BD005440C4135407FF90077EE0907F4B935408
:1030CD0040C4131354032FFF900780E0907F4B9360
:1030DD005440C4540F2FFFE9935440131313541F3E
:1030ED002FFFEA9354401313543F2FFFEB9354409B
:1030FD00C3132FFFEC9354402FFFED93544025E065
:10310D002F90077CF090077FE0907F4B935480C405
:10311D0013135403FF90077EE0907F4B935480C4AC
:10312D0013131354012FFF900780E0907F4B93549E
:10313D0080C41354072FFFE9935480C4540F2FFFFD
:10314D00EA935480131313541F2FFFEB93548013E2
:10315D0013543F2FFFEC935480FEC3132FFFED93B9
:10316D0054802F90077DF07F8A127E937F40127ED0
:10317D0093C2C27FC012747C900776E0FF12747CFC
:10318D007F8012747C900777E0FF12747CE4FF124D
:10319D00747C900778E0FF12747CE4FF12747C90CD
:1031AD000779E0FF12747CE4FF12747C90077AE0DB
:1031BD00FF12747CE4FF12747C90077BE0FF1274A5
:1031CD007CE4FF12747C90077CE0FF12747CE4FFBA
:1031DD0012747C90077DE0FF12747CE4FF12747C06
:0231ED00D2C24C
:0131EF0022BD
:064B62009007C11211C70B
:104B680078C57C077D017BFF7A7F79617E007F08AD
:104B7800120E4C7F817E697D677CFF9007C1E0F84B
:104B8800A3E0F9A3E0FAA3E0FBD312110D5003024E
:104B98004CF97FFF7EE07DF57C059007C1E0F8A326
:104BA800A3A3E012110D4003024CF99007C1E0FCE9
:104BB800EC33405FE49007CDF0E47B0AFAF9F89013
:104BC80007C1E0FCA3E0FDA3E0FEA3E0FF12727DB5
:104BD8009007CEEBF09007C1E0FCA3E0FDA3E0FE58
:104BE800A3E0FFE47B0AFAF9F812727D9007C1127C
:104BF80011C79007CEE0FF9007CDE024C5F582E409
:104C08003407F583EFF09007CDE004F0E0B408A98D
:104C1800024CBF9007C1E0FCA3E0FDA3E0FEA3E0C7
:104C2800FF1286CD9007C11211C7E49007CDF0E4BA
:104C3800FFFEFDFC9007C1E0F8A3E0F9A3E0FAA3AA
:104C4800E0FBD312110D404FE47B0AFAF9F8900704
:104C5800C1E0FCA3E0FDA3E0FEA3E0FF12727D909B
:104C680007CEEBF09007C1E0FCA3E0FDA3E0FEA3B4
:104C7800E0FFE47B0AFAF9F812727D9007C112117D
:104C8800C79007CEE0FF9007CDE024C5F582E43455
:104C980007F583EFF080129007CDE024C5F582E494
:104CA8003407F5837410F0800E9007CDE004F0E02F
:104CB80064086003024C379007CCE0FF9007CBE014
:104CC800FD9007CAE0FB9007C9E0900771F09007D4
:104CD800C8E0900772F09007C7E0900773F090075C
:104CE800C6E0900774F09007C5E0900775F0122EA3
:014CF8005D5E
:014CF9002298
:058723007F80027E933F
:1070D700900328EFF012860C7F90127B4A127AD920
:1070E7007F01127B4A127AD9900328E014600E14AC
:1070F700600F146010240370117FC2800A7FD28052
:10710700067FE280027FF2127B4A127AD97FE3126E
:087117007B4A127AD90286F5C9
:1082BA0012860C7F90127B4A127AD9E4FF127B4A0B
:0682CA00127AD90286F5CC
:1077D400E4900332F0A3F012860C7F91127B4A12DC
:1077E4007AD9127BDE900332EFF012859D127BDE94
:1077F400900333EFF01286F5900332E0FEA3E0FD30
:02780400EDFF96
:01780600225F
:08818B00900299EFF0A3EDF062
:10819300E4A3F0A37430F07B017A02799B7F03029E
:0281A300465F35
:107F6900EF25E025E024A6F582E43407F583E070E7
:0D7F790003FEFF221270D71282BA1277D4D5
:017F860022D8
:10840300EF25E025E024A6F582E43407F583740123
:02841300F02255
:1084A000EF25E025E024A6F582E43407F583E4F027
:0184B00022A9
:08825A009008CAECF0A3EDF05E
:10826200E4A3F0A3EFF07B017A0879CCE4FF0246A5
:018272005FAC
:0584B100900909EFF045
:0B84B600E4FF00000FEFB408F9000025
:0184C1002298
:045B6A00410674007C
:1071AE00E4900290F0A37408F07B017A0279907F4C
:1071BE000312465F9002907401F0A37404F07B01F9
:1071CE007A0279907F0312465F9002947401F0E484
:1071DE00900292F0A304F0FB7A027992E4FF125E21
:0571EE00F5C2B2C2B3BE
:0171F3002279
:10841500EF75F007A42456F582E43406F58374015C
:02842500F02243
:1084C200EF75F007A42456F582E43406F583E4F050
:0184D2002287
:1084D300EF75F007A42456F582E43406F583E0FF34
:0184E3002276
:10832200EF75F007A42457F582E43406F583ECF0E8
:04833200A3EDF022A5
:107DB300AB07900326E0FCA3E0FDA3E0FEA3E0FFF6
:107DC300EB75F007A42452F582E43406F58302111F
:017DD300C7E8
:10833600EF75F007A42457F582E43406F583E0FED2
:04834600A3E0FF228F
:05723900900325EFF0B9
:10723E0075F007A42456F582E43406F583E0602E3B
:10724E00900325E0700DD2A8D2B37F05FE12798986
:10725E00C2B322900325E0B40114E4FF127F6990BB
:0E726E00065EEEF0A3EFF07F057E0012798938
:01727C0022EF
:1081A500EF75F007A42452F582E43406F583E0FC6C
:0A81B500A3E0FDA3E0FEA3E0FF221B
:03000300026BC1CC
:106BC100C0E0C083C082C0D075D000C004C005C081
:106BD10006C00730B20A43D180900674E4F08038D1
:106BE10020B22D53D17FAFD2900657E4F0A3EFF03E
:106BF100E0FEADD37C00E42DFFEC3E900657F0A300
:106C0100EFF075D20075D3009006747401F080081E
:106C1100900674E4F053D17FD007D006D005D0049C
:096C2100D0D0D082D083D0E03243
:105B6E0045080434431010014507FF34431010015B
:1058180090090AEFF0703EC295D294C2917B017A4A
:105828000779FF9008727405F07F2A1273447D018E
:105838007F211285067D017F22128506E4FD7F25E2
:105848001285067D207F311285067D077F26128509
:10585800067D0F805590090AE064017059C295D2FF
:1058680094C2917B017A0879049008727405F07FDC
:10587800301273447B017A0779FF9008727405F03F
:105888007F2A1273447D017F211285067D017F22C4
:10589800128506E4FD7F251285067D077F26128581
:1058A800067D207F311285067D0E7F201285067FBA
:1058B800147E0002798990090AE06402704BC2954F
:1058C800D294C2917B017A0879049008727405F029
:1058D8007F301273447B017A0779FF900872740550
:1058E800F07F2A1273447D017F211285067D017F96
:1058F80022128506E4FD7F251285067D077F261284
:0A59080085067D207F3112850622FE
:1078390090090BEFF07FF47E0112798990090BE032
:107849007006C2957D0F800B90090BE0B40112C23E
:10785900957D0E7F20128506D2957F147E001279C0
:02786900892272
:0B6F56009008CEEBF0A3EAF0A3E9F0F6
:106F6100E4A3F07F071285AA128732128738501ED8
:106F7100C2959008CEE0FBA3E0FAA3E0F99008C522
:106F81007420F07F6112779F9008D17401F012870D
:106F910035AD077F27128506D2957FC87E0012790D
:066FA100899008D1E0FF19
:016FA70022C7
:10761B009008DBEBF0A3EAF0A3E9F07DFF7F2712E4
:10762B0085067DFF7FE1128506C2959008DBE0FBA6
:10763B00A3E0FAA3E0F99008727420F07FA0127314
:0A764B0044D2957FC87E00027989C1
:0A74B8009008DFEDF09008DEEFF021
:1074C200127B4A127AD99008DFE0FF127B4A127AC5
:1074D200D99008DEE04401FF127B4A127AD9127B6E
:1074E200DE9008E0EFF01286161286F59008E0E0D2
:0174F200FF9A
:0174F3002276
:1081BF0090090CEFF07D077FD012827390090CE0CD
:0A81CF00FF127B4A127AD90286F5EE
:0E6FA8009008B7EFF0A3EBF0A3EAF0A3E9F036
:106FB60012860C9008B7E04401FF127B4A127AD978
:106FC600E49008BBF0127BDE9008B8E0FBA3E0FA81
:106FD600A3E0F9A3E0F582758300EF120ECA1285CD
:106FE6009D9008BBE004F0E0C3940740D8128616D3
:036FF6000286F51B
:088697007F077E0EDEFEDFFC12
:01869F0022B8
:0886A0007F027E63DEFEDFFCB9
:0186A80022AF
:0886A9007F127E7FDEFEDFFC84
:0186B10022A6
:0686D50000007F39DFFE0A
:0186DB00227C
:0686DC0000007F03DFFE39
:0186E2002275
:0886B2007F037E52DEFEDFFCB7
:0186BA00229D
:10795B00E4FDD2811286D5FBFAEDC313FDC2811271
:10796B0086DCD2811286DC3081034480FD1286A036
:0D797B000BBB00010AEB64084A70DEAF058B
:0179880022DC
:02792C00AD07A5
:10792E00E4FBFAED30E00CC2811286DCD2811286C5
:10793E00A0800AC2811286A0D2811286DCEDC3130A
:0C794E00FD0BBB00010AEB64084A70D777
:01795A00220A
:1076C600E4FDFBFA7C01D281128697C2811286A95B
:1076D600D28130811EECB4011A0BBB00010A12865E
:1076E600D5D3EB9480EA943E4002E4FCA281E433D5
:0876F600FD80DFD2810286B2A3
:05708D00900325EFF067
:107092001276C67FCC12792C7F4412792C1276C6D6
:1070A2007FCC12792C7FBE12792C12795B9003442B
:1070B200E4F0A3EFF012795BEFFE900344E04EFEA2
:1070C200A3E0FFFDAC06E4120B10E4FBFA79807832
:0470D2003D1208F86B
:0170D6002297
:10842700E4900290F0A304F0FB7A027990E4FF0253
:02843700465F9E
:106E5E00120E72F59D900001120E8BFFE5BC549F31
:106E6E004FF5BC900002120E8BB4010543BC80801E
:106E7E000353BC7F900003120E8BB4010543972081
:106E8E0080035397DF900005120E8BB40104D2AD30
:106E9E008002C2AD900004120E8BB40103D2BD224B
:036EAE00C2BD2240
:0C85E900EFB4010443BC802253BC7F228D
:106D5500EFD3940740028051E4F5BDF5BEE5BC5480
:106D6500E044084FF5BC00000000E4FBE5BC30E45E
:106D75003353BCEFE59730E509E5BD5403ADBEFCE3
:106D8500801DAFBD7C00AD07ED7E007802C333CE1C
:106D950033CED8F9FFE5BE5403FDEEFCEF4DFDAF54
:0D6DA50005AE04220BEBB4FAC37E047F00A0
:016DB20022BE
:03002B0002872821
:0487280053BCEF321D
:0F8538007D367C07ED1D70011C144C70F7DFF1D0
:018547002211
:10798900E4FCFDFB7A36796E7801120FE2E47B0C98
:10799900FAF9F812727D7B407A42790F78001272F7
:0D79A9007DEF4E600800EF1F70F71E80F4A8
:0179B60022AE
:0E856600E4F5C7F5C5F5C675C3FF75C4FF2261
:10738400AD07AC06C2AF75C78075C501ECF5C3AFD8
:10739400058FC475C65A75C6A500E5C2120EB80D90
:1073A400BD00010C740129F9E43AFA90084D74FF08
:0F73B400F5F0120F5345F070D3128566D2AF2259
:107E3400AD07AC06C2AFECF5C3AF058FC475C78000
:107E440075C50375C65A75C6A500128566D2AF22DC
:1073C300AD07AC06C2AF75C78075C502ECF5C3AF98
:1073D300058FC4120E72F5C275C65A75C6A5000D87
:1073E300BD00010C740129F9E43AFA90085474FFC2
:0F73F300F5F0120F5345F070D3128566D2AF221A
:0300130002874120
:018741003205
:03005300028742DF
:018742003204
:03005B00028743D6
:018743003203
:03008300028744AD
:018744003202
:105EF500EFD3940440037F0122EF702D900002122E
:105F05000E8BB40104D2A88002C2A8900001120E23
:105F15008BB40104D2B88002C2B8120E72B4010467
:105F2500D2888002C2887F0022EF6401702D900024
:105F350002120E8BB40104D2AA8002C2AA900001FB
:105F4500120E8BB40104D2BA8002C2BA120E72B418
:105F55000104D28A8002C28A7F0022EFB402149023
:105F65000002120E8BB40105438F108003538FEF8F
:105F75007F0022EFB40314900002120E8BB40105CA
:105F8500438F208003538FDF7F0022EFB4041490EA
:105F95000002120E8BB40105438F408003538FBF5F
:065FA5007F00227F0222B2
:03872F00A21B2268
:10465F00EFD3940540037F0122120E72FED3940311
:10466F0040037F0222EF7041EE700B900001120E9B
:10467F008BF452935294120E72B4010B90000112EC
:10468F000E8B4293F45294120E72FEB4020A9000F3
:10469F0001120E8B42934294EEB4030D900001125F
:1046AF000E8BFEF45293EE4294EF64017043120EA0
:1046BF0072FE700B900001120E8BF452915292EE1B
:1046CF00B4010B900001120E8B4291F45292120E14
:1046DF0072B4020A900001120E8B42914292120E96
:1046EF0072B4030D900001120E8BFEF45291EE4244
:1046FF0092EF64027043120E72FE700B9000011263
:10470F000E8BF452955296EEB4010B900001120EDF
:10471F008B4295F45296120E72B4020A9000011257
:10472F000E8B42954296120E72B4030D9000011239
:10473F000E8BFEF45295EE4296EF64037043120E09
:10474F0072FE700B900001120E8BF452B152B2EE4A
:10475F00B4010B900001120E8B42B1F452B2120E43
:10476F0072B4020A900001120E8B42B142B2120EC5
:10477F0072B4030D900001120E8BFEF452B1EE4293
:10478F00B2EF64047043120E72FE700B90000112B0
:10479F000E8BF452B352B4EEB4010B900001120E13
:1047AF008B42B3F452B4120E72B4020A900001128B
:1047BF000E8B42B342B4120E72B4030D900001126D
:1047CF000E8BFEF452B3EE42B4EF64057043120E3B
:1047DF0072FF700B900001120E8BF452C952CAEF88
:1047EF00B4010B900001120E8B42C9F452CA120E83
:1047FF0072B4020A900001120E8B42C942CA120E05
:10480F0072B4030D900001120E8BFFF452C9EF42E8
:04481F00CA7F00222A
:07857400C2B512857BD2B4F1
:06857B0000007F39DFFE65
:0185810022D7
:0A860C00D2B5128576C2B502857B57
:0686F500128574D2B522CB
:0D859D00C2B4128574C2B412857BD2B5221F
:047AD500FF127B4AD7
:107AD900E4FEC2B412857BD2B5D2B412857B30B52F
:107AE9000DEEC394FF50070EA2B5921780F0C2B4F1
:027AF900A217D2
:017AFB002268
:0A861600D2B5C2B4128576C2B422B8
:107BDE00E4FEFDD2B412857BEE25E0FE12857B30ED
:107BEE00B5054401FE8000C2B412857B0DEDB408CC
:037BFE00E2AF06ED
:017C01002260
:027B4A00AE0784
:107B4C00E4FDC2B412857BEE5480FFC413131354AE
:107B5C000124FF92B5128576EE25E0FE0DEDB408FA
:037B6C00E1C2B4BF
:017B6F0022F3
:10827300AC05AE0712860CAF06127B4A127AD9AF51
:0982830004127B4A127AD9D322BD
:0B773400900864EBF0A3EAF0A3E9F07A
:10773F00128273E4FC900867E0FFECC39F5019902E
:10774F000864E0FBA3E475F001120F69A9F0FA12C7
:0B775F000E72127AD50C80DD0286F558
:106EB10090086AEBF0A3EAF0A3E9F0900868EFF01C
:106EC10012827312860CE04401127AD5E4FC900818
:106ED1006DE0FFECC39F5025127BDE90086AE0FB5A
:106EE100A3E475F001120F69A9F0FAEF120EB89040
:106EF100086DE0146C600312859D0C80D11286161A
:036F01000286F510
:10605A00EF7034D3ED9498EC940340047C037D985C
:10606A00C3ED9450EC940050047C007D50C2DE9045
:10607A00074EECF0A3EDF0C374E89D900749F07465
:10608A00039C9007488073EF64017034D3ED9468E1
:10609A00EC940B40047C0B7D68C3ED9450EC9400A7
:1060AA0050047C007D50C2DE900750ECF0A3EDF066
:1060BA00C374B89D90074BF0740B9C90074A803AC2
:1060CA00EF64027038D3ED9480EC940740047C07A7
:1060DA007D80C3ED9450EC940050047C007D50C246
:1060EA00DE900752ECF0A3EDF0AE04FFC374D09F2C
:0E60FA0090074DF074079E90074CF0D2DE2206
:1049C3009008E1EBF0A3EAF0A3E9F0AD07EDD3948F
:1049D300034003024B61ED6403704CC2DEF5F9F54D
:1049E300E99008E1E0FBA3E0FAA3E0F9120E72FFFD
:1049F300E5A254CF4FF5A2900001120E8BFFE5D92B
:104A030054F14FF5D9900004120E8B5401FFE5D9F0
:104A130054FE4FF5D9900005120E8BB40104D2BF9A
:104A23008002C2BFD2DE229008E1E0FBA3E0FAA33A
:104A3300E02404F9E43AFA120E725431120EB890DB
:104A430008E1E0FBA3E0FAA3E0F9900002120E8B69
:104A5300C39448400FE92404F9E43AFA120E72545D
:104A6300CF120EB8ED704F9008E1E0FBA3E0FAA37C
:104A7300E0F9900004120E8BFF900002120E8BFEE1
:104A83004FF5DA900003120E8BFFE5F2543F4FF51A
:104A9300F2900006120FAAFBAAF090074EEAF0A3C9
:104AA300EBF0C211900745EEF0900754EAF0A3EB48
:104AB300F0F5EAEAF5FAED6401704F9008E1E0FBE6
:104AC300A3E0FAA3E0F9900004120E8BFF9000021A
:104AD300120E8BFE4FF5DB900003120E8BFFE5F3F6
:104AE300543F4FF5F3900006120FAAFBAAF090076C
:104AF30050EAF0A3EBF0C212900746EEF09007568F
:104B0300EAF0A3EBF0F5EBEAF5FBED6402704F90EE
:104B130008E1E0FBA3E0FAA3E0F9900004120E8B96
:104B2300FF900002120E8BFE4FF5DC900003120E75
:104B33008BFFE5F4543F4FF5F4900006120FAAFDE6
:104B4300ACF0900752ECF0A3EDF0C213900747EEE0
:0F4B5300F0900758ECF0A3EDF0F5ECECF5FC2238
:105253009008E5ECF0A3EDF09008E4EFF0705ED376
:10526300EB9464EA940040047A007B64C3EB9401FA
:10527300EA940050047A007B01C2DE9008E5E0FE68
:10528300A3E0FFAD03AC02120EEC7C007D64120EB2
:10529300FE90074EEEF0A3EFF07C007D64AF03AE0B
:1052A30002120EFEC374019FFFE49EFE9008E5E028
:1052B300FCA3E0FD120EEC9007480253889008E42B
:1052C300E06401705DD3EB9464EA940040047A00D7
:1052D3007B64C3EB9401EA940050047A007B01C21F
:1052E300DE7C007D64AF03AE02120EFE9008E5E0A3
:1052F300FCA3E0FD120EEC900750EEF0A3EFF07C60
:10530300007D64AF03AE02120EFEC374019FFFE47F
:105313009EFE9008E5E0FCA3E0FD120EEC90074A28
:1053230080639008E4E064027062D3EB9464EA94CF
:105333000040047A007B64C3EB9401EA94005004B8
:105343007A007B01C2DE7C007D64AF03AE02120EE5
:10535300FE9008E5E0FCA3E0FD120EEC900752EE90
:10536300F0A3EFF0AE02AF037C007D64120EFEC328
:1053730074019FFFE49EFE9008E5E0FCA3E0FD12AC
:0D5383000EEC90074CEEF0A3EFF0D2DE220E
:03003B0002625707
:10625700C0E0C083C082C0D075D000C006C0073080
:10626700D82AC2D830A50590074E8003900748E08A
:10627700FEA3E0FF900755E02FF0900754E03EF0B3
:10628700900754E0FEA3E0F5EAEEF5FA30D92AC20A
:10629700D930A605900750800390074AE0FEA3E097
:1062A700FF900757E02FF0900756E03EF090075613
:1062B700E0FEA3E0F5EBEEF5FB30DA2AC2DA30A711
:1062C70005900752800390074CE0FEA3E0FF90077C
:1062D70059E02FF0900758E03EF0900758E0FEA3F2
:1062E700E0F5ECEEF5FCD007D006D0D0D082D08315
:0362F700D0E032C2
:106CF4009008F7ECF0A3EDF0AB079008F7E0FEA3E3
:106D0400E0FFE4FCFDEB75F00AA42462F582E434B0
:106D140005F5831211C743BA8053F57FEB75F00A6A
:106D2400A4246BF582E43405F583E0FF7E0090082B
:106D3400F7E0FCA3E0FD120EECAB07AA06E4F9F8B9
:106D4400FF7E367D6E7C0112727D127EB253BA7F55
:016D5400221C
:1081D900EF75F00AA42462F582E43405F583E0FC26
:0A81E900A3E0FDA3E0FEA3E0FF22E7
:1059FE009008BCEFF07F337E337D737C3FA3E0F8DD
:105A0E00A3E0F9A3E0FAA3E0FB120A9E600C400AA1
:105A1E009008BD1211D33F7333337FCD7ECC7DCC36
:105A2E007C3C9008BDE0F8A3E0F9A3E0FAA3E0FB0C
:105A3E00120A9E500A9008BD1211D33CCCCCCD90C8
:105A4E0008BDE0FCA3E0FDA3E0FEA3E0FF9008BCD0
:105A5E00E0FB75F00AA42467F582E43405F58312A1
:105A6E0011C743BA80EB75F00AA4246BF582E434B7
:105A7E0005F583E0FFE4FCFDFEEB75F00AA424625D
:105A8E00F582E43405F583E0F8A3E0F9A3E0FAA388
:105A9E00E0FB120FE2A804A905AA06AB077F007E61
:105AAE00367D6E7C0112106DE4120B0B9008BDE07A
:105ABE00F8A3E0F9A3E0FAA3E0FB1208F8120B49F1
:105ACE00AB07AA069008BCE0FF7D0A7C0012639922
:045ADE0053BA7F2216
:1081F300EF75F00AA42467F582E43405F583E0FC07
:0A820300A3E0FDA3E0FEA3E0FF22CC
:1084E400EF75F00AA4246BF582E43405F583EDF00E
:0184F4002265
:1084F500EF75F00AA4246BF582E43405F583E0FFFB
:018505002253
:0A86200043BA8043F58053BA7F226D
:0A862A0043BA8053F57F53BA7F2254
:107A350043BA807401A807088002C333D8FC42F515
:107A4500EF75F00AA42466F582E43405F583740124
:087A5500F043F58053BA7F22D3
:107B950043BA807401A807088002C333D8FCF452A5
:107BA500F5EF75F00AA42466F582E43405F583E45F
:057BB500F053BA7F222D
:10843900EF75F00AA42466F582E43405F583E02497
:02844900FF2210
:052AC3009008F9EFF09E
:102AC800E4A3F09008FAE0FFC39406505AEF75F0BB
:102AD8000AA42462F582E43405F5831211D30000B8
:102AE80000009008FAE0FF75F00AA42466F582E475
:102AF8003405F583E4F0EF75F00AA42467F582E461
:102B08003405F5831211D3000000009008FAE0752F
:102B1800F00AA4246BF582E43405F5837401F0907F
:102B280008FAE004F0809C43BA80120E72B40105E2
:102B380043F180800353F17F900001120E8BB401A2
:102B4800149008F9E0FF7401A807088002C333D87D
:102B5800FC42F180139008F9E0FF7401A80708808F
:102B680002C333D8FCF452F1900002120E8BB40168
:102B78000543F540800353F5BF900003120E8BB454
:102B880001149008F9E0FF7401A807088002C33314
:102B9800D8FC42F580139008F9E0FF7401A80708F3
:102BA8008002C333D8FCF452F5900004120E8BB4A3
:102BB800010575F720800353F7DF900005120E8B8F
:102BC800B4010575F710800353F7EF900006120E55
:102BD8008BB4010575F708800353F7F790000712C7
:102BE8000E8BB4010575F704800353F7FB900008BA
:102BF800120E8BB4010575F702800353F7FD9000A0
:102C080009120E8B90FFF27006E054EFF08004E09A
:102C18004410F090FFF2C083C082E0FF90000A12D7
:102C28000E8BFEEF4ED082D083F09008F9E014604E
:102C380072147003022CFE147003022D51147003D9
:102C4800022DA4147003022DF524056003022E4CF6
:102C580090000B120E8B90FF047006E054F7F08082
:102C680004E04408F090000C120E8B90FF04B401AD
:102C780006E04404F08004E054FBF090000D120ECE
:102C88008B90FF04B40106E04402F08004E054FD98
:102C9800F090000E120E8B90FF04B40103022E4236
:102CA800022E4890000B120E8B90FF147006E05411
:102CB800F7F08004E04408F090000C120E8B90FFAF
:102CC80014B40106E04404F08004E054FBF09000E2
:102CD8000D120E8B90FF14B40106E04402F080043C
:102CE800E054FDF090000E120E8B90FF14B4010317
:102CF800022E42022E4890000B120E8B90FF247079
:102D080006E054F7F08004E04408F090000C120E3E
:102D18008B90FF24B40106E04404F08004E054FBE7
:102D2800F090000D120E8B90FF24B40106E04402CF
:102D3800F08004E054FDF090000E120E8B90FF24FA
:102D4800B40103022E42022E4890000B120E8B9003
:102D5800FF347006E054F7F08004E04408F0900077
:102D68000C120E8B90FF34B40106E04404F080048A
:102D7800E054FBF090000D120E8B90FF34B4010666
:102D8800E04402F08004E054FDF090000E120E8B37
:102D980090FF34B40103022E42022E4890000B1219
:102DA8000E8B90FF447006E054F7F08004E044086E
:102DB800F090000C120E8B90FF44B40106E044041E
:102DC800F08004E054FBF090000D120E8B90FF444D
:102DD800B40106E04402F08004E054FDF090000ED7
:102DE800120E8B90FF44B40102804F805390000B69
:102DF800120E8B90FF547006E054F7F08004E04404
:102E080008F090000C120E8B90FF54B40106E044B9
:102E180004F08004E054FBF090000D120E8B90FF3C
:102E280054B40106E04402F08004E054FDF0900040
:102E38000E120E8B90FF54B40106E04401F080049A
:102E4800E054FEF090000F120E8BB4010443F5809D
:042E58002253F57F8D
:012E5C002253
:056DB300900706EBF063
:106DB800E4900708F0A3EDF07B017A077908124602
:106DC8005F43BA80E490070AF0A3F0A3F0A304F0AD
:106DD800E4A3F0A3F0A3F0A3F0A3F0A3F0900707B7
:106DE800E0900714F0E4A3F0A3F0A3F0A3F0A3F05D
:106DF800900706E0FF7B017A07790A122AC353BA83
:016E08007F0A
:016E09002266
:107EB200D3E49F74809E90FFF1400AEFF0EE90FFB2
:0F7EC200F0F07F002274FFF090FFF0747FF02249
:10639900EF14602814603A14604C14605E14607045
:1063A9002405600302643090FF01EDF0EC90FF00DA
:1063B900F090FF03EBF0EA90FF02806790FF11ED88
:1063C900F0EC90FF10F090FF13EBF0EA90FF1280D1
:1063D9005290FF21EDF0EC90FF20F090FF23EBF0BD
:1063E900EA90FF22803D90FF31EDF0EC90FF30F014
:1063F90090FF33EBF0EA90FF32802890FF41EDF0F7
:10640900EC90FF40F090FF43EBF0EA90FF428013DD
:1064190090FF51EDF0EC90FF50F090FF53EBF0EA54
:0A64290090FF52F07F00227F012255
:0A7C0200EBF0A3EAF0A3E9F0C2944E
:107C0C00E4FEEF339293EF25E0FFD291A292E4339E
:097C1C004FFFC2910EEEB408E91D
:017C2500223C
:0C85AA00C294127C0CE4FF127C0CD294F2
:0185B60022A2
:10850600C294127C0CAC07AF05127C0CD294AF045B
:018516002242
:03779F009008C28D
:1077A200127C02AD07E4FC9008C5E0FFECC39F50D9
:1077B2001CE4FF127C0C9008C2E0FBA3E0FAA3E0F9
:1077C200F98C82758300EF120ECA0C80DAD294AF64
:0177D20005B1
:0177D3002293
:0373440090086F3F
:10734700127C02900873EFF07F0A7E00127989E4BD
:10735700FD900872E0FFEDC39F501A90086FE0FBA5
:10736700A3E475F001120F69A9F0FA120E72FF1269
:0C7377007C0C0D80DCD294900873E0FFC9
:0173830022E7
:038732008F202273
:03873500AF202250
:0686FB00EF24FF920622AD
:03873800A2062274
:105B7E00410721004107220042072300004207256A
:105B8E00000042071D000042071B000041072F00C6
:105B9E0041071A004107200041071F004407270054
:0A5BAE0000000044072B0000000077
:10688900E49002B0F0900290F0A304F0A3F0E4A326
:10689900F0A3F0900297F090029574A2F0A37440CF
:1068A900F0E49002A8F0A304F0E4A3F0A3F0A3F0AD
:1068B9009002AFF074FF9002ADF0A3F0E49002985B
